{"abi":[{"type":"constructor","inputs":[{"name":"_leagueToken","type":"address","internalType":"address"},{"name":"_gameEngine","type":"address","internalType":"address"},{"name":"_liquidityPool","type":"address","internalType":"address"},{"name":"_protocolTreasury","type":"address","internalType":"address"},{"name":"_rewardsDistributor","type":"address","internalType":"address"},{"name":"_initialOwner","type":"address","internalType":"address"}],"stateMutability":"nonpayable"},{"type":"function","name":"BONUS_2_MATCH","inputs":[],"outputs":[{"name":"","type":"uint256","internalType":"uint256"}],"stateMutability":"view"},{"type":"function","name":"BONUS_3_MATCH","inputs":[],"outputs":[{"name":"","type":"uint256","internalType":"uint256"}],"stateMutability":"view"},{"type":"function","name":"BONUS_4_PLUS","inputs":[],"outputs":[{"name":"","type":"uint256","internalType":"uint256"}],"stateMutability":"view"},{"type":"function","name":"COUNT_MULT_TIER_1","inputs":[],"outputs":[{"name":"","type":"uint256","internalType":"uint256"}],"stateMutability":"view"},{"type":"function","name":"COUNT_MULT_TIER_2","inputs":[],"outputs":[{"name":"","type":"uint256","internalType":"uint256"}],"stateMutability":"view"},{"type":"function","name":"COUNT_MULT_TIER_3","inputs":[],"outputs":[{"name":"","type":"uint256","internalType":"uint256"}],"stateMutability":"view"},{"type":"function","name":"COUNT_MULT_TIER_4","inputs":[],"outputs":[{"name":"","type":"uint256","internalType":"uint256"}],"stateMutability":"view"},{"type":"function","name":"COUNT_MULT_TIER_5","inputs":[],"outputs":[{"name":"","type":"uint256","internalType":"uint256"}],"stateMutability":"view"},{"type":"function","name":"COUNT_TIER_1","inputs":[],"outputs":[{"name":"","type":"uint256","internalType":"uint256"}],"stateMutability":"view"},{"type":"function","name":"COUNT_TIER_2","inputs":[],"outputs":[{"name":"","type":"uint256","internalType":"uint256"}],"stateMutability":"view"},{"type":"function","name":"COUNT_TIER_3","inputs":[],"outputs":[{"name":"","type":"uint256","internalType":"uint256"}],"stateMutability":"view"},{"type":"function","name":"COUNT_TIER_4","inputs":[],"outputs":[{"name":"","type":"uint256","internalType":"uint256"}],"stateMutability":"view"},{"type":"function","name":"MAX_BET_AMOUNT","inputs":[],"outputs":[{"name":"","type":"uint256","internalType":"uint256"}],"stateMutability":"view"},{"type":"function","name":"MAX_PAYOUT_PER_BET","inputs":[],"outputs":[{"name":"","type":"uint256","internalType":"uint256"}],"stateMutability":"view"},{"type":"function","name":"MAX_ROUND_PAYOUTS","inputs":[],"outputs":[{"name":"","type":"uint256","internalType":"uint256"}],"stateMutability":"view"},{"type":"function","name":"MIN_IMBALANCE_FOR_FULL_BONUS","inputs":[],"outputs":[{"name":"","type":"uint256","internalType":"uint256"}],"stateMutability":"view"},{"type":"function","name":"MIN_PARLAY_MULTIPLIER","inputs":[],"outputs":[{"name":"","type":"uint256","internalType":"uint256"}],"stateMutability":"view"},{"type":"function","name":"PARLAY_MULTIPLIER_10_MATCHES","inputs":[],"outputs":[{"name":"","type":"uint256","internalType":"uint256"}],"stateMutability":"view"},{"type":"function","name":"PARLAY_MULTIPLIER_1_MATCH","inputs":[],"outputs":[{"name":"","type":"uint256","internalType":"uint256"}],"stateMutability":"view"},{"type":"function","name":"PARLAY_MULTIPLIER_2_MATCHES","inputs":[],"outputs":[{"name":"","type":"uint256","internalType":"uint256"}],"stateMutability":"view"},{"type":"function","name":"PARLAY_MULTIPLIER_3_MATCHES","inputs":[],"outputs":[{"name":"","type":"uint256","internalType":"uint256"}],"stateMutability":"view"},{"type":"function","name":"PARLAY_MULTIPLIER_4_MATCHES","inputs":[],"outputs":[{"name":"","type":"uint256","internalType":"uint256"}],"stateMutability":"view"},{"type":"function","name":"PARLAY_MULTIPLIER_5_MATCHES","inputs":[],"outputs":[{"name":"","type":"uint256","internalType":"uint256"}],"stateMutability":"view"},{"type":"function","name":"PARLAY_MULTIPLIER_6_MATCHES","inputs":[],"outputs":[{"name":"","type":"uint256","internalType":"uint256"}],"stateMutability":"view"},{"type":"function","name":"PARLAY_MULTIPLIER_7_MATCHES","inputs":[],"outputs":[{"name":"","type":"uint256","internalType":"uint256"}],"stateMutability":"view"},{"type":"function","name":"PARLAY_MULTIPLIER_8_MATCHES","inputs":[],"outputs":[{"name":"","type":"uint256","internalType":"uint256"}],"stateMutability":"view"},{"type":"function","name":"PARLAY_MULTIPLIER_9_MATCHES","inputs":[],"outputs":[{"name":"","type":"uint256","internalType":"uint256"}],"stateMutability":"view"},{"type":"function","name":"PROTOCOL_FEE","inputs":[],"outputs":[{"name":"","type":"uint256","internalType":"uint256"}],"stateMutability":"view"},{"type":"function","name":"RESERVE_TIER_1","inputs":[],"outputs":[{"name":"","type":"uint256","internalType":"uint256"}],"stateMutability":"view"},{"type":"function","name":"RESERVE_TIER_2","inputs":[],"outputs":[{"name":"","type":"uint256","internalType":"uint256"}],"stateMutability":"view"},{"type":"function","name":"RESERVE_TIER_3","inputs":[],"outputs":[{"name":"","type":"uint256","internalType":"uint256"}],"stateMutability":"view"},{"type":"function","name":"SEASON_POOL_SHARE","inputs":[],"outputs":[{"name":"","type":"uint256","internalType":"uint256"}],"stateMutability":"view"},{"type":"function","name":"SEED_AWAY_POOL","inputs":[],"outputs":[{"name":"","type":"uint256","internalType":"uint256"}],"stateMutability":"view"},{"type":"function","name":"SEED_DRAW_POOL","inputs":[],"outputs":[{"name":"","type":"uint256","internalType":"uint256"}],"stateMutability":"view"},{"type":"function","name":"SEED_HOME_POOL","inputs":[],"outputs":[{"name":"","type":"uint256","internalType":"uint256"}],"stateMutability":"view"},{"type":"function","name":"SEED_PER_MATCH","inputs":[],"outputs":[{"name":"","type":"uint256","internalType":"uint256"}],"stateMutability":"view"},{"type":"function","name":"SEED_PER_ROUND","inputs":[],"outputs":[{"name":"","type":"uint256","internalType":"uint256"}],"stateMutability":"view"},{"type":"function","name":"TIER_1_DECAY","inputs":[],"outputs":[{"name":"","type":"uint256","internalType":"uint256"}],"stateMutability":"view"},{"type":"function","name":"TIER_2_DECAY","inputs":[],"outputs":[{"name":"","type":"uint256","internalType":"uint256"}],"stateMutability":"view"},{"type":"function","name":"TIER_3_DECAY","inputs":[],"outputs":[{"name":"","type":"uint256","internalType":"uint256"}],"stateMutability":"view"},{"type":"function","name":"TIER_4_DECAY","inputs":[],"outputs":[{"name":"","type":"uint256","internalType":"uint256"}],"stateMutability":"view"},{"type":"function","name":"VIRTUAL_LIQUIDITY_MULTIPLIER","inputs":[],"outputs":[{"name":"","type":"uint256","internalType":"uint256"}],"stateMutability":"view"},{"type":"function","name":"WINNER_SHARE","inputs":[],"outputs":[{"name":"","type":"uint256","internalType":"uint256"}],"stateMutability":"view"},{"type":"function","name":"betParlayReserve","inputs":[{"name":"","type":"uint256","internalType":"uint256"}],"outputs":[{"name":"","type":"uint256","internalType":"uint256"}],"stateMutability":"view"},{"type":"function","name":"bets","inputs":[{"name":"","type":"uint256","internalType":"uint256"}],"outputs":[{"name":"bettor","type":"address","internalType":"address"},{"name":"roundId","type":"uint256","internalType":"uint256"},{"name":"amount","type":"uint256","internalType":"uint256"},{"name":"amountAfterFee","type":"uint256","internalType":"uint256"},{"name":"allocatedAmount","type":"uint256","internalType":"uint256"},{"name":"lpBorrowedAmount","type":"uint256","internalType":"uint256"},{"name":"bonus","type":"uint256","internalType":"uint256"},{"name":"lockedMultiplier","type":"uint256","internalType":"uint256"},{"name":"settled","type":"bool","internalType":"bool"},{"name":"claimed","type":"bool","internalType":"bool"}],"stateMutability":"view"},{"type":"function","name":"claimWinnings","inputs":[{"name":"betId","type":"uint256","internalType":"uint256"},{"name":"minPayout","type":"uint256","internalType":"uint256"}],"outputs":[],"stateMutability":"nonpayable"},{"type":"function","name":"distributeSeasonRewards","inputs":[{"name":"recipient","type":"address","internalType":"address"},{"name":"amount","type":"uint256","internalType":"uint256"}],"outputs":[],"stateMutability":"nonpayable"},{"type":"function","name":"emergencyRecoverSeasonPool","inputs":[{"name":"amount","type":"uint256","internalType":"uint256"}],"outputs":[],"stateMutability":"nonpayable"},{"type":"function","name":"finalizeRoundRevenue","inputs":[{"name":"roundId","type":"uint256","internalType":"uint256"}],"outputs":[],"stateMutability":"nonpayable"},{"type":"function","name":"gameEngine","inputs":[],"outputs":[{"name":"","type":"address","internalType":"contract IGameEngine"}],"stateMutability":"view"},{"type":"function","name":"getAllMatchOdds","inputs":[{"name":"roundId","type":"uint256","internalType":"uint256"}],"outputs":[{"name":"homeOdds","type":"uint256[10]","internalType":"uint256[10]"},{"name":"awayOdds","type":"uint256[10]","internalType":"uint256[10]"},{"name":"drawOdds","type":"uint256[10]","internalType":"uint256[10]"}],"stateMutability":"view"},{"type":"function","name":"getBet","inputs":[{"name":"betId","type":"uint256","internalType":"uint256"}],"outputs":[{"name":"bettor","type":"address","internalType":"address"},{"name":"roundId","type":"uint256","internalType":"uint256"},{"name":"amount","type":"uint256","internalType":"uint256"},{"name":"bonus","type":"uint256","internalType":"uint256"},{"name":"lockedMultiplier","type":"uint256","internalType":"uint256"},{"name":"settled","type":"bool","internalType":"bool"},{"name":"claimed","type":"bool","internalType":"bool"}],"stateMutability":"view"},{"type":"function","name":"getBetPredictions","inputs":[{"name":"betId","type":"uint256","internalType":"uint256"}],"outputs":[{"name":"","type":"tuple[]","internalType":"struct BettingPoolV2_1.Prediction[]","components":[{"name":"matchIndex","type":"uint256","internalType":"uint256"},{"name":"predictedOutcome","type":"uint8","internalType":"uint8"},{"name":"amountInPool","type":"uint256","internalType":"uint256"}]}],"stateMutability":"view"},{"type":"function","name":"getCurrentParlayMultiplier","inputs":[{"name":"roundId","type":"uint256","internalType":"uint256"},{"name":"matchIndices","type":"uint256[]","internalType":"uint256[]"},{"name":"numLegs","type":"uint256","internalType":"uint256"}],"outputs":[{"name":"currentMultiplier","type":"uint256","internalType":"uint256"},{"name":"currentTier","type":"uint256","internalType":"uint256"},{"name":"parlaysLeftInTier","type":"uint256","internalType":"uint256"},{"name":"nextTierMultiplier","type":"uint256","internalType":"uint256"}],"stateMutability":"view"},{"type":"function","name":"getLockedOdds","inputs":[{"name":"roundId","type":"uint256","internalType":"uint256"},{"name":"matchIndex","type":"uint256","internalType":"uint256"}],"outputs":[{"name":"homeOdds","type":"uint256","internalType":"uint256"},{"name":"awayOdds","type":"uint256","internalType":"uint256"},{"name":"drawOdds","type":"uint256","internalType":"uint256"},{"name":"locked","type":"bool","internalType":"bool"}],"stateMutability":"view"},{"type":"function","name":"getMarketOdds","inputs":[{"name":"roundId","type":"uint256","internalType":"uint256"},{"name":"matchIndex","type":"uint256","internalType":"uint256"},{"name":"outcome","type":"uint8","internalType":"uint8"}],"outputs":[{"name":"odds","type":"uint256","internalType":"uint256"}],"stateMutability":"view"},{"type":"function","name":"getMatchPoolData","inputs":[{"name":"roundId","type":"uint256","internalType":"uint256"},{"name":"matchIndex","type":"uint256","internalType":"uint256"}],"outputs":[{"name":"homePool","type":"uint256","internalType":"uint256"},{"name":"awayPool","type":"uint256","internalType":"uint256"},{"name":"drawPool","type":"uint256","internalType":"uint256"},{"name":"totalPool","type":"uint256","internalType":"uint256"}],"stateMutability":"view"},{"type":"function","name":"getRoundAccounting","inputs":[{"name":"roundId","type":"uint256","internalType":"uint256"}],"outputs":[{"name":"totalBetVolume","type":"uint256","internalType":"uint256"},{"name":"totalReservedForWinners","type":"uint256","internalType":"uint256"},{"name":"protocolRevenueShare","type":"uint256","internalType":"uint256"},{"name":"seasonRevenueShare","type":"uint256","internalType":"uint256"},{"name":"parlayCount","type":"uint256","internalType":"uint256"}],"stateMutability":"view"},{"type":"function","name":"getUserBets","inputs":[{"name":"user","type":"address","internalType":"address"}],"outputs":[{"name":"","type":"uint256[]","internalType":"uint256[]"}],"stateMutability":"view"},{"type":"function","name":"leagueToken","inputs":[],"outputs":[{"name":"","type":"address","internalType":"contract IERC20"}],"stateMutability":"view"},{"type":"function","name":"liquidityPoolV2","inputs":[],"outputs":[{"name":"","type":"address","internalType":"contract ILiquidityPoolV2"}],"stateMutability":"view"},{"type":"function","name":"nextBetId","inputs":[],"outputs":[{"name":"","type":"uint256","internalType":"uint256"}],"stateMutability":"view"},{"type":"function","name":"owner","inputs":[],"outputs":[{"name":"","type":"address","internalType":"address"}],"stateMutability":"view"},{"type":"function","name":"placeBet","inputs":[{"name":"matchIndices","type":"uint256[]","internalType":"uint256[]"},{"name":"outcomes","type":"uint8[]","internalType":"uint8[]"},{"name":"amount","type":"uint256","internalType":"uint256"}],"outputs":[{"name":"betId","type":"uint256","internalType":"uint256"}],"stateMutability":"nonpayable"},{"type":"function","name":"previewBetPayout","inputs":[{"name":"betId","type":"uint256","internalType":"uint256"}],"outputs":[{"name":"won","type":"bool","internalType":"bool"},{"name":"basePayout","type":"uint256","internalType":"uint256"},{"name":"finalPayout","type":"uint256","internalType":"uint256"},{"name":"parlayMultiplier","type":"uint256","internalType":"uint256"}],"stateMutability":"view"},{"type":"function","name":"previewMatchOdds","inputs":[{"name":"roundId","type":"uint256","internalType":"uint256"},{"name":"matchIndex","type":"uint256","internalType":"uint256"}],"outputs":[{"name":"homeOdds","type":"uint256","internalType":"uint256"},{"name":"awayOdds","type":"uint256","internalType":"uint256"},{"name":"drawOdds","type":"uint256","internalType":"uint256"}],"stateMutability":"view"},{"type":"function","name":"protocolTreasury","inputs":[],"outputs":[{"name":"","type":"address","internalType":"address"}],"stateMutability":"view"},{"type":"function","name":"renounceOwnership","inputs":[],"outputs":[],"stateMutability":"nonpayable"},{"type":"function","name":"rewardsDistributor","inputs":[],"outputs":[{"name":"","type":"address","internalType":"address"}],"stateMutability":"view"},{"type":"function","name":"roundAccounting","inputs":[{"name":"","type":"uint256","internalType":"uint256"}],"outputs":[{"name":"totalBetVolume","type":"uint256","internalType":"uint256"},{"name":"totalWinningPool","type":"uint256","internalType":"uint256"},{"name":"totalLosingPool","type":"uint256","internalType":"uint256"},{"name":"totalReservedForWinners","type":"uint256","internalType":"uint256"},{"name":"totalClaimed","type":"uint256","internalType":"uint256"},{"name":"totalPaidOut","type":"uint256","internalType":"uint256"},{"name":"protocolFeeCollected","type":"uint256","internalType":"uint256"},{"name":"protocolRevenueShare","type":"uint256","internalType":"uint256"},{"name":"lpRevenueShare","type":"uint256","internalType":"uint256"},{"name":"seasonRevenueShare","type":"uint256","internalType":"uint256"},{"name":"revenueDistributed","type":"bool","internalType":"bool"},{"name":"protocolSeedAmount","type":"uint256","internalType":"uint256"},{"name":"seeded","type":"bool","internalType":"bool"},{"name":"lpBorrowedForBets","type":"uint256","internalType":"uint256"},{"name":"totalUserDeposits","type":"uint256","internalType":"uint256"},{"name":"parlayCount","type":"uint256","internalType":"uint256"},{"name":"roundStartTime","type":"uint256","internalType":"uint256"},{"name":"roundEndTime","type":"uint256","internalType":"uint256"},{"name":"settled","type":"bool","internalType":"bool"}],"stateMutability":"view"},{"type":"function","name":"seasonRewardPool","inputs":[],"outputs":[{"name":"","type":"uint256","internalType":"uint256"}],"stateMutability":"view"},{"type":"function","name":"seedRoundPools","inputs":[{"name":"roundId","type":"uint256","internalType":"uint256"}],"outputs":[],"stateMutability":"nonpayable"},{"type":"function","name":"setRewardsDistributor","inputs":[{"name":"_distributor","type":"address","internalType":"address"}],"outputs":[],"stateMutability":"nonpayable"},{"type":"function","name":"settleRound","inputs":[{"name":"roundId","type":"uint256","internalType":"uint256"}],"outputs":[],"stateMutability":"nonpayable"},{"type":"function","name":"transferOwnership","inputs":[{"name":"newOwner","type":"address","internalType":"address"}],"outputs":[],"stateMutability":"nonpayable"},{"type":"function","name":"userBets","inputs":[{"name":"","type":"address","internalType":"address"},{"name":"","type":"uint256","internalType":"uint256"}],"outputs":[{"name":"","type":"uint256","internalType":"uint256"}],"stateMutability":"view"},{"type":"event","name":"BetLost","inputs":[{"name":"betId","type":"uint256","indexed":true,"internalType":"uint256"},{"name":"bettor","type":"address","indexed":true,"internalType":"address"}],"anonymous":false},{"type":"event","name":"BetPlaced","inputs":[{"name":"betId","type":"uint256","indexed":true,"internalType":"uint256"},{"name":"bettor","type":"address","indexed":true,"internalType":"address"},{"name":"roundId","type":"uint256","indexed":true,"internalType":"uint256"},{"name":"amount","type":"uint256","indexed":false,"internalType":"uint256"},{"name":"bonus","type":"uint256","indexed":false,"internalType":"uint256"},{"name":"parlayMultiplier","type":"uint256","indexed":false,"internalType":"uint256"},{"name":"matchIndices","type":"uint256[]","indexed":false,"internalType":"uint256[]"},{"name":"outcomes","type":"uint8[]","indexed":false,"internalType":"uint8[]"}],"anonymous":false},{"type":"event","name":"OddsLocked","inputs":[{"name":"roundId","type":"uint256","indexed":true,"internalType":"uint256"},{"name":"timestamp","type":"uint256","indexed":false,"internalType":"uint256"}],"anonymous":false},{"type":"event","name":"OwnershipTransferred","inputs":[{"name":"previousOwner","type":"address","indexed":true,"internalType":"address"},{"name":"newOwner","type":"address","indexed":true,"internalType":"address"}],"anonymous":false},{"type":"event","name":"ParlayBonusReleased","inputs":[{"name":"betId","type":"uint256","indexed":true,"internalType":"uint256"},{"name":"reservedAmount","type":"uint256","indexed":false,"internalType":"uint256"},{"name":"actualBonus","type":"uint256","indexed":false,"internalType":"uint256"}],"anonymous":false},{"type":"event","name":"ProtocolReserveFunded","inputs":[{"name":"funder","type":"address","indexed":true,"internalType":"address"},{"name":"amount","type":"uint256","indexed":false,"internalType":"uint256"}],"anonymous":false},{"type":"event","name":"RoundRevenueFinalized","inputs":[{"name":"roundId","type":"uint256","indexed":true,"internalType":"uint256"},{"name":"netRevenue","type":"uint256","indexed":false,"internalType":"uint256"},{"name":"toProtocol","type":"uint256","indexed":false,"internalType":"uint256"},{"name":"toLP","type":"uint256","indexed":false,"internalType":"uint256"},{"name":"toSeason","type":"uint256","indexed":false,"internalType":"uint256"},{"name":"seedRecovered","type":"uint256","indexed":false,"internalType":"uint256"}],"anonymous":false},{"type":"event","name":"RoundSeeded","inputs":[{"name":"roundId","type":"uint256","indexed":true,"internalType":"uint256"},{"name":"totalSeedAmount","type":"uint256","indexed":false,"internalType":"uint256"}],"anonymous":false},{"type":"event","name":"RoundSettled","inputs":[{"name":"roundId","type":"uint256","indexed":true,"internalType":"uint256"},{"name":"totalWinningPool","type":"uint256","indexed":false,"internalType":"uint256"},{"name":"totalLosingPool","type":"uint256","indexed":false,"internalType":"uint256"},{"name":"totalReserved","type":"uint256","indexed":false,"internalType":"uint256"}],"anonymous":false},{"type":"event","name":"SeasonPoolRecovered","inputs":[{"name":"owner","type":"address","indexed":true,"internalType":"address"},{"name":"amount","type":"uint256","indexed":false,"internalType":"uint256"}],"anonymous":false},{"type":"event","name":"SeasonRewardsDistributed","inputs":[{"name":"recipient","type":"address","indexed":true,"internalType":"address"},{"name":"amount","type":"uint256","indexed":false,"internalType":"uint256"}],"anonymous":false},{"type":"event","name":"WinningsClaimed","inputs":[{"name":"betId","type":"uint256","indexed":true,"internalType":"uint256"},{"name":"bettor","type":"address","indexed":true,"internalType":"address"},{"name":"basePayout","type":"uint256","indexed":false,"internalType":"uint256"},{"name":"parlayMultiplier","type":"uint256","indexed":false,"internalType":"uint256"},{"name":"finalPayout","type":"uint256","indexed":false,"internalType":"uint256"}],"anonymous":false},{"type":"error","name":"OwnableInvalidOwner","inputs":[{"name":"owner","type":"address","internalType":"address"}]},{"type":"error","name":"OwnableUnauthorizedAccount","inputs":[{"name":"account","type":"address","internalType":"address"}]},{"type":"error","name":"ReentrancyGuardReentrantCall","inputs":[]},{"type":"error","name":"SafeERC20FailedOperation","inputs":[{"name":"token","type":"address","internalType":"address"}]}],"bytecode":{"object":"0x610100346102cb57601f6147cc38819003918201601f19168301916001600160401b038311848410176102cf5780849260c0946040528339810103126102cb57610048816102e3565b610054602083016102e3565b90610061604084016102e3565b61006d606085016102e3565b9261007a608086016102e3565b946001600160a01b03906100909060a0016102e3565b169283156102b8575f80546001600160a01b031981168617825560405195916001600160a01b03909116907f8be0079c531659141344cd1fd0a4f28419497f9722a3daafe3b4186f6b6457e09080a360017f9b779b17422d0df92223018b32b4d1fa46e071723d6817e2486d003becc55f00556001600160a01b031692831561028657506001600160a01b0316908115610241576001600160a01b03169182156101fc5760805260a05260c05260e052600180546001600160a01b0319166001600160a01b03929092169190911790556040516144d490816102f882396080518181816114cf0152818161219c015281816123530152818161289e01528181612a360152612e7b015260a0518181816104aa01528181610b24015281816114360152818161397801528181613bad0152614176015260c051818181610378015281816107f901528181611615015281816124da0152612af5015260e05181818161154c015261213b0152f35b60405162461bcd60e51b815260206004820152601660248201527f496e76616c6964206c697175696469747920706f6f6c000000000000000000006044820152606490fd5b60405162461bcd60e51b815260206004820152601360248201527f496e76616c69642067616d6520656e67696e65000000000000000000000000006044820152606490fd5b62461bcd60e51b815260206004820152600d60248201526c24b73b30b634b2103a37b5b2b760991b6044820152606490fd5b631e4fbdf760e01b5f525f60045260245ffd5b5f80fd5b634e487b7160e01b5f52604160045260245ffd5b51906001600160a01b03821682036102cb5756fe610180806040526004361015610013575f80fd5b5f905f3560e01c908163061e494f14613115575080630a981246146121cb5780630b2c164714612fbf5780630b4501fd1461224d5780630c7d2bae14612f5b57806316a51ff414612f4057806317a4accd14612f1e5780631959847514612efb5780631bf82bd914612ed95780631c8c259f14612e3157806320cd36a614612e0f578063223345cb14612df357806322af00fa14612d565780632664d75514612d3a578063286db5c21461294f57806329ca092d1461292a5780632aa8f7b1146129055780632cac7212146128215780632d56657d1461276c578063309167f514612747578063329fb636146126ea5780633d8e22d5146126c05780633e40f1771461269d5780633f2a5540146126745780633f348db714612651578063451f2e4b146126335780634911f82b146126105780634a0f878c146125f35780634b451163146122f6578063530bae83146122d257806353589810146122b6578063566e1fa5146122995780635698d942146122765780635e1e964b14612252578063606fc7e21461224d57806366c7ec97146104d957806367eeeb131461222a578063715018a6146121d057806374e01f84146121cb578063759aa03f146121865780637a7ba6cd1461216a578063803db96d146121255780638068aa68146120ce5780638644c39b1461139357806386c932f4146112c25780638af012cd1461129f5780638b2270c61461127c5780638da5cb5b146112555780639aca2792146112375780639ba39fb014611219578063ab66b980146111ba578063aba425f2146110ac578063ac7d82a414611073578063b13b536914610501578063b8c657bd14611050578063d1c35bd514611033578063d1f5c33b14610fb0578063d25ab4ef14610f57578063d2b48cd314610ae8578063d33d8f3b14610775578063d527e20e14610752578063da8bb4f114610704578063db3ece13146106e8578063dbe3010c146106cb578063dbeac414146106ae578063dd93bfd914610692578063dfefe6bb14610506578063e28a8af814610501578063e4ed0b34146104de578063e5184cfd146104d9578063e533627614610494578063eb3ca58014610471578063f2fde38b146103eb578063fcbf0465146103ce578063fdf68fdd146103aa5763ffaa5bc314610363575f80fd5b346103a757806003193601126103a7576040517f00000000000000000000000000000000000000000000000000000000000000006001600160a01b03168152602090f35b80fd5b50346103a757806003193601126103a7576020604051682b5e3af16b188000008152f35b50346103a757806003193601126103a75760206040516127108152f35b50346103a75760203660031901126103a757610405613239565b61040d613861565b6001600160a01b0316801561045d5781546001600160a01b03198116821783556001600160a01b03167f8be0079c531659141344cd1fd0a4f28419497f9722a3daafe3b4186f6b6457e08380a380f35b631e4fbdf760e01b82526004829052602482fd5b50346103a757806003193601126103a7576020604051671a5e27eef13e00008152f35b50346103a757806003193601126103a7576040517f00000000000000000000000000000000000000000000000000000000000000006001600160a01b03168152602090f35b61324f565b50346103a757806003193601126103a7576020604051671158e460913d00008152f35b61329c565b50346103a75760203660031901126103a75760405160043561014061052b8184613504565b803684376040519361053d8286613504565b813686376040519261054f8385613504565b8236853780825260046020526040822091805b600a8110610599576103c0876105978861058c8c8a61058460405180976132be565b8501906132be565b6102808301906132be565bf35b80825283602052604082208054600182015490600360028401549301541561065f575b6105cb6105cb6105d1926134af565b926134af565b916105e5836105e083856134c8565b6134c8565b91670de0b6b3a7640000830292808404670de0b6b3a7640000149015171561064b57918b610634866106278197958f61062d60019b61062761063a9b8a613525565b92613798565b5285613525565b52613525565b6106448289613798565b5201610562565b634e487b7160e01b86526011600452602486fd5b5050506105cb6105cb6105d16106758487613b8e565b9490939091610688866105e087846134c8565b50925050506105bc565b50346103a757806003193601126103a757602060405160288152f35b50346103a757806003193601126103a7576020604051611db08152f35b50346103a757806003193601126103a75760206040516109c48152f35b50346103a757806003193601126103a757602060405160148152f35b50346103a75760203660031901126103a7576080906004356040600761072983613940565b939195909481526005602052200154916040519315158452602084015260408301526060820152f35b50346103a757806003193601126103a75760206040516710cac896d23900008152f35b50346103a75760203660031901126103a757600435610792613861565b808252600460205260408220600e81019060ff825416610aac576107bd60ff60148301541615613550565b839160028201835b8686600a8310610a5157505060405163135f765760e01b8152600481018790526024810186905291506020905081604481897f00000000000000000000000000000000000000000000000000000000000000006001600160a01b03165af1908115610a46578691610a08575b50156109a65782600d830155600160ff198254161790558360018201905b600a81106108b25750505060207fc1e798a01e4b562c52f176383aa1ad99b5114715bedb9e6f0afbea3b1eb56c8991837ffd052adb674e308968f3eb0dcc772f5f5501c87bfddd4ffcc99b7d5b251ee9d983604051428152a2604051908152a280f35b80865282602052604086208187528260205260408720906003810154801561096a57670de0b6b3a76400008102908104670de0b6b3a7640000036109565791610940826109378b61093061092a60019998600261091260039a5483613525565b966109208d82015484613525565b9550015490613525565b936143ff565b85556143ff565b868401556143ff565b600282015501805460ff1916831790550161084f565b634e487b7160e01b89526011600452602489fd5b60405162461bcd60e51b8152602060048201526014602482015273141bdbdb081b9bdd081a5b9a5d1a585b1a5e995960621b6044820152606490fd5b60405162461bcd60e51b815260206004820152603460248201527f4c5020706f6f6c2063616e6e6f742066756e642073656564696e67202d20696e60448201527373756666696369656e74206c697175696469747960601b6064820152608490fd5b90506020813d602011610a3e575b81610a2360209383613504565b81010312610a3a57610a3490613543565b5f610831565b8580fd5b3d9150610a16565b6040513d88823e3d90fd5b610a9c8392600398610a9160406105e08b610a7160019a610aa499613b8e565b94919790928b82526020522095808755818b8801558360028801556134c8565b809a819301556134c8565b9684546134c8565b8355016107c5565b60405162461bcd60e51b8152602060048201526014602482015273149bdd5b9908185b1c9958591e481cd95959195960621b6044820152606490fd5b50346103a75760203660031901126103a75760043590610b06613861565b610b0e613908565b6040516398a6ad9360e01b8152600481018390527f00000000000000000000000000000000000000000000000000000000000000006001600160a01b03169290602081602481875afa908115610f4c578391610f0e575b5015610ec95780825260046020526040822092601484019360ff855416610e92578390600381019560048201925b600a8110610d8a57508486526004602052604086208694859160018101915b600a8410610c2e575050505060058201849055805460ff19166001179055426013909101559354935460408051958652602086019190915284015290917fdcd22d97752d321191985c580c39fd922cadb3e8b528ac2e57f2eb876795f4dd9080606081015b0390a260015f51602061447f5f395f51905f525580f35b9091929660405163107cfe5160e01b815289600482015288602482015261012081604481865afa908115610d7f578b91610d50575b50888b528360205260408b2090898c5285602052608060408d209101516004811015610d3c578015610d305760018103610d115750610ca460018093613f18565b918c8315610d0457610cdf936001959360ff670de0b6b3a764000094610cd89450168781145f14610cea575054905b613212565b04906134c8565b975b01929190610bb2565b600203610cfa5786015490613212565b6002015490613212565b5050505096600190610ce1565b600203610d2457610ca460028093613f18565b610ca460038093613f18565b50505096600190610ce1565b634e487b7160e01b8d52602160045260248dfd5b610d7291506101203d8111610d78575b610d6a8183613504565b8101906136f6565b5f610c63565b503d610d60565b6040513d8d823e3d90fd5b60405163107cfe5160e01b815286600482015281602482015261012081604481895afa908115610e87578891610e68575b50818852836020526080604089209101516004811015610e545760019291610e0f91808503610e175750610e06610dfd825492600287820154910154906134c8565b915b8c546134c8565b8b5586546134c8565b855501610b93565b600203610e3c57610e06610e36858301549260028154910154906134c8565b91610dff565b610e06610e36600283015492868154910154906134c8565b634e487b7160e01b89526021600452602489fd5b610e8191506101203d8111610d7857610d6a8183613504565b5f610dbb565b6040513d8a823e3d90fd5b60405162461bcd60e51b815260206004820152600f60248201526e105b1c9958591e481cd95d1d1b1959608a1b6044820152606490fd5b60405162461bcd60e51b815260206004820152601f60248201527f526f756e64206e6f7420736574746c656420696e2047616d65456e67696e65006044820152606490fd5b90506020813d602011610f44575b81610f2960209383613504565b81010312610f4057610f3a90613543565b5f610b65565b8280fd5b3d9150610f1c565b6040513d85823e3d90fd5b50346103a7576040608091610f6b366131fc565b90825260046020526001838320019082526020522080549060018101549060ff6003600283015492015416916040519384526020840152604083015215156060820152f35b50346103a75760203660031901126103a757610fca613239565b610fd2613861565b6001600160a01b03168015610ffc576bffffffffffffffffffffffff60a01b600154161760015580f35b60405162461bcd60e51b815260206004820152600f60248201526e496e76616c6964206164647265737360881b6044820152606490fd5b50346103a757806003193601126103a75760206040516119008152f35b50346103a757806003193601126103a757602060405167120a871cc00200008152f35b50346103a75760603660031901126103a7576044359060ff821682036103a75760206110a483602435600435613621565b604051908152f35b50346103a7576110bb366131fc565b9080835260046020526040832082845260205260408320918254906001840154926003600286015495015415611186575b50506105cb6105cb6110fd926134af565b9061110c826105e085846134c8565b90670de0b6b3a7640000820291808304670de0b6b3a7640000149015171561117257918161114a61114361116e9561115195613525565b9582613525565b9550613525565b604051938493846040919493926060820195825260208201520152565b0390f35b634e487b7160e01b85526011600452602485fd5b6105cb94506105cb93506110fd92509061119f91613b8e565b94909390916111b2866105e087846134c8565b5092506110ec565b50346103a75760203660031901126103a7576004803582526020908152604091829020600281015460058201546009830154600b840154601190940154865193845294830191909152938101939093526060830152608082015260a090f35b50346103a757806003193601126103a7576020600254604051908152f35b50346103a757806003193601126103a7576020600354604051908152f35b50346103a757806003193601126103a757546040516001600160a01b039091168152602090f35b50346103a757806003193601126103a7576020604051670fae9103543100008152f35b50346103a757806003193601126103a7576020604051671083bab1f2b700008152f35b50346103a75760203660031901126103a757600435815260056020526008604082200180546112f0816135df565b906112fe6040519283613504565b80825260208201809385526020852085915b83831061137557868587604051928392602084019060208552518091526040840192915b818110611342575050500390f35b9193509160206060600192604087518051835260ff85820151168584015201516040820152019401910191849392611334565b60036020600192611385856135f6565b815201920192019190611310565b50346103a75760603660031901126103a7576004356001600160401b0381116120ca576113c49036906004016131cc565b90916024356001600160401b0381116120ca576113e59036906004016131cc565b60449291923560a0526113f6613908565b60a051156120905769021e19e0c9bab240000060a0511161205557808403612018578315158061200d575b15611fd45760405163a32bf59760e01b8152947f00000000000000000000000000000000000000000000000000000000000000006001600160a01b0316602087600481845afa968715611f5a578497611f9c575b508615611f65576020602491604051928380926398a6ad9360e01b82528b60048301525afa8015611f5a578490611f1f575b6114b2915015613550565b6040516323b872dd60e01b8452336004523060245260a0516044527f00000000000000000000000000000000000000000000000000000000000000009590602085606481808b5af1906001865114821615611efe575b6040528460605215611ee2578684526004602052604084206101f460a0510260a05181046101f40361064b576127109004611571816115498160a0516132fc565b997f000000000000000000000000000000000000000000000000000000000000000090613887565b611580600883019182546134c8565b9055600281016115918882546134c8565b9055601081016115a28882546134c8565b905560035460808190525f1914611172576001608051016003556115c8828981866137a9565b9660ff831161064b57670de0b6b3a76400006115eb89610cd36001871b85613212565b0469152d02c7e14af68000008111611ed1575b60405163423bcb9f60e01b815260048101919091527f00000000000000000000000000000000000000000000000000000000000000006001600160a01b031690602081602481855afa908115610e87578891611e93575b5015611e3f5760018411611e27575b8987526004602052604087209061167a856135df565b916116886040519384613504565b858352601f19611697876135df565b0136602085013783895b878110611ce057508b15611ccc578b5f19048111611c87576116d787670de0b6b3a76400006116d18f8f95613212565b04613525565b918a92898c80948d8c670de0b6b3a76400008602945b818910611bba575050505050505050508381115f14611bb35761171084826132fc565b915b82611a64575b50608051895260056020526040892093336bffffffffffffffffffffffff60a01b8654161785558c600186015560a05160028601556003850155600484015560058301558660068301558860078301556009820161ffff1981541690556008879201915b8481106118af5750505050338452600660205260408420805490600160401b82101561189b57906117b291600182018155613273565b81549060031b90608051821b915f19901b19161790556040519560a0518752846020880152604087015260a060608701528060a087015260018060fb1b038111611897579060e09160059493941b809160c088013785018360c0820160c088840301608089015252019291815b81831061187257505050507f418cb7f7f7b5a88f421073ecd29a5c7a5472d6349a88afacfe4fa11fdc45e31f339280608051930390a460015f51602061447f5f395f51905f525560206040516080518152f35b90919293843560ff8116809103610f405781526020908101940192600101919061181f565b8380fd5b634e487b7160e01b86526041600452602486fd5b6118ba818688613594565b356118ce6118c9838a8d613594565b6135a4565b600a821015611a295760ff16600181101580611a1e575b156119e7576118f483856135b2565b5190828b5286602052600360408c20600183145f146119ba576119188482546134c8565b81555b016119278382546134c8565b905560405192611936846134d5565b835260208301908152604083019182528554600160401b8110156119a65780600161196492018855876135c6565b9390936119925791600291600195949351845560ff86850191511660ff19825416179055519101550161177c565b634e487b7160e01b8c5260048c905260248cfd5b634e487b7160e01b8c52604160045260248cfd5b600283036119d857600181016119d18582546134c8565b905561191b565b600281016119d18582546134c8565b60405162461bcd60e51b815260206004820152600f60248201526e496e76616c6964206f7574636f6d6560881b6044820152606490fd5b5060038111156118e5565b60405162461bcd60e51b8152602060048201526013602482015272092dcecc2d8d2c840dac2e8c6d040d2dcc8caf606b1b6044820152606490fd5b60405163423bcb9f60e01b815260048101849052602081602481855afa908115610d7f578b91611b75575b5015611b1157600f8601611aa48482546134c8565b9055803b15611b0d57604051634e958d0560e01b815230600482015260248101849052908a908290604490829084905af18015611b0257908a91611ae9575b50611718565b81611af391613504565b611afe57885f611ae3565b8880fd5b6040513d8c823e3d90fd5b8980fd5b60405162461bcd60e51b815260206004820152603660248201527f496e73756666696369656e74204c50206c697175696469747920746f20626f726044820152753937bb903337b9103132ba1030b63637b1b0ba34b7b760511b6064820152608490fd5b90506020813d602011611bab575b81611b9060209383613504565b81010312611ba757611ba190613543565b5f611a8f565b8a80fd5b3d9150611b83565b8891611712565b88809a969798999392611bcc92613594565b35845260018801602052604084209350600160ff611bee6118c9858588613594565b1603611c5d57505050545b838304670de0b6b3a76400001484151715611c4957600191611c1e611c3a9285613525565b611c28888b6135b2565b52611c33878a6135b2565b51906134c8565b94019291908c8e8d8c8e6116ed565b634e487b7160e01b8e52601160045260248efd5b6118c960ff92611c6f92600295613594565b1603611c7e5760010154611bf9565b60020154611bf9565b60405162461bcd60e51b815260206004820152601a60248201527f5061726c6179206d756c7469706c696572206f766572666c6f770000000000006044820152606490fd5b634e487b7160e01b8a52601260045260248afd5b90611cec82898b613594565b358b526001830160205260408b2060ff60038201541615611dd7578c838c600160ff611d1c6118c9858588613594565b1603611dad57505050545b8015611d9957805f19048211611d5457611d4c670de0b6b3a764000091600193613212565b0491016116a1565b60405162461bcd60e51b815260206004820152601b60248201527f5061726c61792063616c63756c6174696f6e206f766572666c6f7700000000006044820152606490fd5b634e487b7160e01b8c52601260045260248cfd5b6118c960ff92611dbf92600295613594565b1603611dce5760010154611d27565b60020154611d27565b60405162461bcd60e51b815260206004820152602260248201527f4f646473206e6f74206c6f636b6564202d207365656420726f756e64206669726044820152611cdd60f21b6064820152608490fd5b60118301805490600182018092116109565755611664565b60405162461bcd60e51b815260206004820152602660248201527f496e73756666696369656e74204c50206c697175696469747920666f722074686044820152651a5cc818995d60d21b6064820152608490fd5b90506020813d602011611ec9575b81611eae60209383613504565b81010312611ec557611ebf90613543565b5f611655565b8780fd5b3d9150611ea1565b5069152d02c7e14af68000006115fe565b635274afe760e01b84526001600160a01b038616600452602484fd5b906001811516611f1657873b15153d15161690611508565b503d85823e3d90fd5b506020813d602011611f52575b81611f3960209383613504565b8101031261189757611f4d6114b291613543565b6114a7565b3d9150611f2c565b6040513d86823e3d90fd5b60405162461bcd60e51b815260206004820152600f60248201526e139bc81858dd1a5d99481c9bdd5b99608a1b6044820152606490fd5b9096506020813d602011611fcc575b81611fb860209383613504565b81010312611fc85751955f611475565b5f80fd5b3d9150611fab565b60405162461bcd60e51b8152602060048201526011602482015270125b9d985b1a590818995d0818dbdd5b9d607a1b6044820152606490fd5b50600a841115611421565b60405162461bcd60e51b8152602060048201526015602482015274082e4e4c2f240d8cadccee8d040dad2e6dac2e8c6d605b1b6044820152606490fd5b60405162461bcd60e51b81526020600482015260136024820152724265742065786365656473206d6178696d756d60681b6044820152606490fd5b60405162461bcd60e51b81526020600482015260126024820152710416d6f756e74206d757374206265203e20360741b6044820152606490fd5b5080fd5b50346103a75760403660031901126103a7576120e8613239565b6001600160a01b03168152600660205260408120805460243592908310156103a75760206121168484613273565b90549060031b1c604051908152f35b50346103a757806003193601126103a7576040517f00000000000000000000000000000000000000000000000000000000000000006001600160a01b03168152602090f35b50346103a757806003193601126103a7576020604051601e8152f35b50346103a757806003193601126103a7576040517f00000000000000000000000000000000000000000000000000000000000000006001600160a01b03168152602090f35b61318c565b50346103a757806003193601126103a7576121e9613861565b80546001600160a01b03198116825581906001600160a01b03167f8be0079c531659141344cd1fd0a4f28419497f9722a3daafe3b4186f6b6457e08280a380f35b50346103a757806003193601126103a7576020604051671111d67bb1bb00008152f35b6131b0565b50346103a757806003193601126103a757602060405168a2a15d09519be000008152f35b50346103a757806003193601126103a7576020604051670de0b6b3a76400008152f35b50346103a757806003193601126103a75760206040516107d08152f35b50346103a757806003193601126103a7576020604051600a8152f35b50346103a757806003193601126103a7576020604051683635c9adc5dea000008152f35b50346103a75760203660031901126103a757600435612313613908565b80825260046020526040822061232f60ff60148301541661346f565b600c81019060ff8254166125b8576040516370a0823160e01b8152306004820152917f00000000000000000000000000000000000000000000000000000000000000006020846024816001600160a01b0385165afa938415610a46578694612584575b50858694879281612441575b5050907fce840208b2fbcf51e74502912f1c66484f03b0f374fb22abe88b064770baa89494610c17926123da6002870154600d880154906134c8565b948360078801549787891161242b575b8084600a600b9301550155600160ff19825416179055604051958695869192608093969594919660a084019784526020840152604083015260608201520152565b9350600b612439888a6132fc565b9490506123ea565b9150915061245860108501546008860154906134c8565b60c881029080820460c814901517156125705761271088910492808411612568575b83612484916132fc565b91826124d8575b5050907fce840208b2fbcf51e74502912f1c66484f03b0f374fb22abe88b064770baa89494610c1792826124c4575b919281965061239e565b6124d0836002546134c8565b6002556124ba565b7f00000000000000000000000000000000000000000000000000000000000000006001600160a01b0316906125109084908390613887565b803b156120ca578180916024604051809481936303c5afc560e51b83528860048401525af1801561255d571561248b578161254d91949394613504565b6125595790865f61248b565b8680fd5b6040513d84823e3d90fd5b92508261247a565b634e487b7160e01b88526011600452602488fd5b9093506020813d6020116125b0575b816125a060209383613504565b81010312611fc85751925f612392565b3d9150612593565b60405162461bcd60e51b8152602060048201526013602482015272105b1c9958591e48191a5cdd1c9a589d5d1959606a1b6044820152606490fd5b50346103a757806003193601126103a75760206040516122608152f35b50346103a757806003193601126103a757602060405167101925daa37400008152f35b50346103a757806003193601126103a757602060405162b71b008152f35b50346103a757806003193601126103a75760206040516716345785d8a000008152f35b50346103a757806003193601126103a7576001546040516001600160a01b039091168152602090f35b50346103a757806003193601126103a75760206040516722b1c8c1227a00008152f35b50346103a75760203660031901126103a75760406020916004358152600783522054604051908152f35b50346103a7576040906126fc366131fc565b908252600460205282822090825260205220805461116e6001830154926003600282015491015490604051948594859094939260609260808301968352602083015260408201520152565b50346103a757806003193601126103a757602060405169021e19e0c9bab24000008152f35b50346103a75760203660031901126103a7576001600160a01b0361278e613239565b168152600660205260408120604051908160208254918281520190819285526020852090855b81811061280b57505050826127ca910383613504565b604051928392602084019060208552518091526040840192915b8181106127f2575050500390f35b82518452859450602093840193909201916001016127e4565b82548452602090930192600192830192016127b4565b50346103a75760403660031901126103a75761283b613239565b60243590612847613861565b60025461285681841115613423565b6001600160a01b0382169283156128cc576128c2817f05136e79992e647094b27d255c30ceac2eaad871a287b60697a1586ea57146a294612899826020966132fc565b6002557f0000000000000000000000000000000000000000000000000000000000000000613887565b604051908152a280f35b60405162461bcd60e51b8152602060048201526011602482015270125b9d985b1a59081c9958da5c1a595b9d607a1b6044820152606490fd5b50346103a757806003193601126103a757602060405169065a4da25d3016c000008152f35b50346103a757806003193601126103a75760206040516934f086f3b33b684000008152f35b5034611fc85761295e366131fc565b90612967613908565b5f81815260056020526040902080546001600160a01b03163303612d06576009810190815460ff8160081c16612ccf5760018201545f52600460205260405f20906129b860ff60148401541661346f565b6129c185613940565b95919290978610612c8a5761ffff191661010117905580612c81575b15612c515760078101908154906969e10de76676d08000006129ff86846134c8565b11612c0c57612a1f916006869201612a188382546134c8565b90556134c8565b90556040516370a0823160e01b81523060048201527f0000000000000000000000000000000000000000000000000000000000000000906020816024816001600160a01b0386165afa908115612bbd575f91612bda575b50838110612adf57508291612ab07fadd3d9a4e0b4065aaaea286d6a972cb854de1a2a3d8bb80101aca14da148a5fd946007933390613887565b01546040805195865260208601919091528401523392606090a35b60015f51602061447f5f395f51905f525580f35b90612aea82856132fc565b9180612bc8575b50507f00000000000000000000000000000000000000000000000000000000000000006001600160a01b0316803b15611fc857604051634e958d0560e01b815233600482015260248101929092525f908290604490829084905af18015612bbd57612b82575b509060077fadd3d9a4e0b4065aaaea286d6a972cb854de1a2a3d8bb80101aca14da148a5fd92612ab0565b7fadd3d9a4e0b4065aaaea286d6a972cb854de1a2a3d8bb80101aca14da148a5fd929195505f612bb191613504565b60075f95919250612b57565b6040513d5f823e3d90fd5b612bd3913390613887565b5f80612af1565b90506020813d602011612c04575b81612bf560209383613504565b81010312611fc857515f612a76565b3d9150612be8565b60405162461bcd60e51b815260206004820152601a60248201527f526f756e64207061796f7574206c696d697420726561636865640000000000006044820152606490fd5b505050905033907fa6b438d2f943e986ee20a3085806aef2a8d4e3cffeed7bc3b248aa9c8436529b5f80a3612acb565b508215156129dd565b60405162461bcd60e51b815260206004820152601f60248201527f5061796f75742062656c6f77206d696e696d756d2028736c69707061676529006044820152606490fd5b60405162461bcd60e51b815260206004820152600f60248201526e105b1c9958591e4818db185a5b5959608a1b6044820152606490fd5b60405162461bcd60e51b815260206004820152600c60248201526b139bdd081e5bdd5c8818995d60a21b6044820152606490fd5b34611fc8575f366003190112611fc8576020604051610fa08152f35b34611fc8576020366003190112611fc8576004355f52600560205261014060405f2060ff60018060a01b03825416916001810154906002810154600382015460048301546005840154916006850154936009600787015496015496604051998a5260208a015260408901526060880152608087015260a086015260c085015260e0840152818116151561010084015260081c161515610120820152f35b34611fc8575f366003190112611fc85760206040516103e88152f35b34611fc8575f366003190112611fc8576020604051671e87f85809dc00008152f35b34611fc8576020366003190112611fc857600435612e4d613861565b612e6581600254612e6081831115613423565b6132fc565b6002555f54612e9f9082906001600160a01b03167f0000000000000000000000000000000000000000000000000000000000000000613887565b5f546040519182526001600160a01b0316907f0cf167f58526fa673647a56c1a9c430d6ac70f7a37a2065a4288f4d63a45505690602090a2005b34611fc8575f366003190112611fc85760206040516711355d6e217c00008152f35b34611fc8575f366003190112611fc857602060405168410d586a20a4c000008152f35b34611fc8575f366003190112611fc8576020604051670e92596fd62900008152f35b34611fc8575f366003190112611fc857602060405160c88152f35b34611fc8576060366003190112611fc8576024356001600160401b038111611fc857612f9d612f9161116e9236906004016131cc565b60443591600435613309565b6040805194855260208501939093529183015260608201529081906080820190565b34611fc8576020366003190112611fc8576004355f52600460205260405f2080600281015460038201546101405260048201546101605260058201546006830154600784015460088501546009860154600a87015490600b88015492600c89015460ff1694600d8a015496600e8b015460ff1698600f8c01549a60108d01549c601101549d601281015460c0526013810154610100526014015460ff166101205260405160e05260e051526101405160e051602001526101605160e0516040015260e0516060015260e0516080015260e05160a0015260e05160c0015260e05160e0015260e051610100015260e0516101200152151560e051610140015260e0516101600152151560e051610180015260e0516101a0015260e0516101c0015260e0516101e0015260c05160e05161020001526101005160e051610220015261012051151560e051610240015260e05161026090f35b34611fc8576020366003190112611fc85760e0906004355f52600560205260ff60405f2060018060a01b038154169060018101546002820154600683015491600960078501549401549487526020870152604086015260608501526080840152818116151560a084015260081c16151560c0820152f35b34611fc8575f366003190112611fc857602060405169152d02c7e14af68000008152f35b34611fc8575f366003190112611fc85760206040516101f48152f35b9181601f84011215611fc8578235916001600160401b038311611fc8576020808501948460051b010111611fc857565b6040906003190112611fc8576004359060243590565b8181029291811591840414171561322557565b634e487b7160e01b5f52601160045260245ffd5b600435906001600160a01b0382168203611fc857565b34611fc8575f366003190112611fc85760206040516969e10de76676d08000008152f35b8054821015613288575f5260205f2001905f90565b634e487b7160e01b5f52603260045260245ffd5b34611fc8575f366003190112611fc8576020604051670f43fc2c04ee00008152f35b905f905b600a82106132cf57505050565b60208060019285518152019301910190916132c2565b680d02ab486cedbfffff1981019190821161322557565b9190820391821161322557565b93909192936001851461340d57805f526004602052601160405f20015494600a86105f1461335a57600195600a0391600a8311613225576133549295671e87f85809dc0000956137a9565b93929190565b6014861015613386576002956014039160148311613225576133549295671a5e27eef13e0000956137a9565b601e8610156133b257600395601e0391601e83116132255761335492956716345785d8a00000956137a9565b9060288610156133f357600495602803602881116133e0579061335492919567120a871cc0020000956137a9565b601187634e487b7160e01b5f525260245ffd5b9450613354906005955f9567120a871cc0020000956137a9565b50670de0b6b3a764000093505f92508291508190565b1561342a57565b60405162461bcd60e51b815260206004820152601a60248201527f416d6f756e74206578636565647320736561736f6e20706f6f6c0000000000006044820152606490fd5b1561347657565b60405162461bcd60e51b8152602060048201526011602482015270149bdd5b99081b9bdd081cd95d1d1b1959607a1b6044820152606490fd5b906b26c62ad77dc602dae0000000820180921161322557565b9190820180921161322557565b606081019081106001600160401b038211176134f057604052565b634e487b7160e01b5f52604160045260245ffd5b90601f801991011681019081106001600160401b038211176134f057604052565b811561352f570490565b634e487b7160e01b5f52601260045260245ffd5b51908115158203611fc857565b1561355757565b60405162461bcd60e51b8152602060048201526015602482015274149bdd5b9908185b1c9958591e481cd95d1d1b1959605a1b6044820152606490fd5b91908110156132885760051b0190565b3560ff81168103611fc85790565b80518210156132885760209160051b010190565b8054821015613288575f52600360205f20910201905f90565b6001600160401b0381116134f05760051b60200190565b90604051613603816134d5565b6040600282948054845260ff60018201541660208501520154910152565b91613652916003935f52600460205260405f20905f5260205261364860405f209182613f18565b92839101546132fc565b9080156136da57613662906134af565b906b4d8c55aefb8c05b5c00000008101809111613225576109c48102908082046109c4149015171561322557612710900490670de0b6b3a7640000820291808304670de0b6b3a76400001490151715613225576136be91613525565b670de0b6b3a76400000180670de0b6b3a7640000116132255790565b50506729a2241af62c000090565b519060ff82168203611fc857565b9081610120910312611fc8576040519061012082018281106001600160401b038211176134f057604052805182526020810151602083015261373a604082016136e8565b604083015261374b606082016136e8565b60608301526080810151906004821015611fc85761010091608084015261377460a08201613543565b60a084015260c081015160c084015260e081015160e0840152015161010082015290565b90600a8110156132885760051b0190565b9291909160018114613851576137c990825f959395526004602052613f3e565b925f915f915b84831061382457505050610fa0916137e691613525565b10613817576127108102908082046127101490151715613225576127109004670f43fc2c04ee000081106138175790565b50670f43fc2c04ee000090565b90919261384860019161384261383b878988613594565b3585613ff8565b906134c8565b930191906137cf565b50505050670de0b6b3a764000090565b5f546001600160a01b0316330361387457565b63118cdaa760e01b5f523360045260245ffd5b916040519163a9059cbb60e01b5f5260018060a01b031660045260245260205f60448180865af19060015f51148216156138e7575b604052156138c75750565b635274afe760e01b5f9081526001600160a01b0391909116600452602490fd5b9060018115166138ff57823b15153d151616906138bc565b503d5f823e3d90fd5b60025f51602061447f5f395f51905f5254146139315760025f51602061447f5f395f51905f5255565b633ee5aeb560e01b5f5260045ffd5b5f52600560205260405f2090600182015491825f52600460205260405f20926001905f945f9160088501908154916001808060a01b037f0000000000000000000000000000000000000000000000000000000000000000169401905b8386106139fd575b505050505050156139f3576139c66007670de0b6b3a764000092015484613212565b049069152d02c7e14af680000082116139e1575b6001929190565b69152d02c7e14af680000091506139da565b505f915081908190565b909192939498613a16613a108b846135c6565b506135f6565b8051916040519263107cfe5160e01b84528660048501526024840152610120836044818b5afa928315612bbd575f93613b6d575b50602082019260ff845116600181145f14613b52575060806001915b01516004811015613b3e576004821015613b3e5703613b285781515f528460205260405f209260ff60038501541615613aed57610cd8613ac793604060019660ff670de0b6b3a76400009551168881145f14613ad3575054915b0151613212565b9901949392919061399c565b600203613ae35787015491613ac0565b6002015491613ac0565b60405162461bcd60e51b815260206004820152601360248201527213d9191cc81b9bdd081b1bd8dad959081e595d606a1b6044820152606490fd5b9a5050505050505050505f5f80808080806139a4565b634e487b7160e01b5f52602160045260245ffd5b600203613b63576080600291613a66565b6080600391613a66565b613b879193506101203d8111610d7857610d6a8183613504565b915f613a4a565b60405163107cfe5160e01b8152600481018290526024810192909252907f00000000000000000000000000000000000000000000000000000000000000006001600160a01b03169061012081604481855afa908115612bbd575f91613ef9575b5060208151910151916040519063d3b30b7560e01b8252602082600481845afa918215612bbd575f92613ec4575b5060c06024916040519283809263290f619560e21b82528660048301525afa908115612bbd575f91613e2e575b50604060039101511115613c6857613c619350614156565b9192909190565b509160405191602083019384526040830152606082015260608152613c8e608082613504565b519020606481069160648260081c0680841193845f14613e205790613cb2916132fc565b6041811115613dbc575060326012906020945b15613d70578068a2a15d09519be00000029068a2a15d09519be000008204036132255760649004908068a2a15d09519be00000029068a2a15d09519be000008204036132255760649004935b8068a2a15d09519be00000029068a2a15d09519be0000082040361322557606480605092049460101c0611613d4557929190565b91681a055690d9db800000810180911161322557613d66613d6c91936132e5565b936132e5565b9190565b908068a2a15d09519be00000029068a2a15d09519be000008204036132255760649004908068a2a15d09519be00000029068a2a15d09519be00000820403613225576064900493613d11565b6032811115613dd35750602e601790601f94613cc5565b6023811115613dea5750602a601b90601f94613cc5565b6014811115613e0057506026601f908194613cc5565b60081015613e15576024602190601f94613cc5565b602280602094613cc5565b613e29916132fc565b613cb2565b905060c0813d60c011613ebc575b81613e4960c09383613504565b81010312611fc8576040519060c08201918083106001600160401b038411176134f05760a0604092600394845280518352602081015160208401528381015184840152613e9860608201613543565b6060840152613ea960808201613543565b6080840152015160a08201529150613c49565b3d9150613e3c565b9091506020813d602011613ef1575b81613ee060209383613504565b81010312611fc857519060c0613c1c565b3d9150613ed3565b613f1291506101203d8111610d7857610d6a8183613504565b5f613bee565b9060ff1660018114613f3957600214613f32576002015490565b6001015490565b505490565b60018114613feb5760028114613fde57600381146138175760048114613fd15760058114613fc45760068114613fb75760078114613faa5760088114613f9d57600914613f9157671158e460913d000090565b6711355d6e217c000090565b50671111d67bb1bb000090565b506710cac896d239000090565b50671083bab1f2b7000090565b5067101925daa374000090565b50670fae91035431000090565b50670e92596fd629000090565b50670de0b6b3a764000090565b5f52600460205260405f20905f5260205260405f206003810154801561406857815491600181015483811161405f575b5060020154828111614057575b5061271082029180830461271014901517156132255761405491613525565b90565b91505f614035565b92506002614028565b50505f90565b602081830312611fc8578051906001600160401b038211611fc857019060e082820312611fc8576040519160e083018381106001600160401b038211176134f05760405280516001600160401b038111611fc85781019180601f84011215611fc85782516001600160401b0381116134f057604051916140f8601f8301601f191660200184613504565b81835260208286010111611fc8576020815f928260c097018386015e8301015283526020810151602084015260408101516040840152606081015160608401526080810151608084015260a081015160a0840152015160c082015290565b604051631877970560e21b815260048101829052602481019290925290917f00000000000000000000000000000000000000000000000000000000000000006001600160a01b0316915f84604481865afa938415612bbd575f946143dc575b509060445f926040519485938492631877970560e21b8452600484015260248301525afa908115612bbd575f916143ba575b506080820151606e810290808204606e149015171561322557606490049160808201916142158351856134c8565b9182156143a45761424181606061423860206142579501516040840151906134c8565b910151906134c8565b91606061423860208301516040840151906134c8565b901515908161439a575b501561437d578151838181111561435257505061427f8251846132fc565b906064820291808304606414901517156132255761429c91613525565b601e8111156142f357505110156142d05768492f037764b9580000906828a857425466f80000906830ca024f987b90000090565b6828a857425466f800009068492f037764b9580000906830ca024f987b90000090565b600f10156143365751101561431c5768410d586a20a4c00000906830ca024f987b900000908190565b6830ca024f987b9000009068410d586a20a4c00000908290565b506838ebad5cdc90280000918291506830ca024f987b90000090565b61435b916132fc565b906064820291808304606414901517156132255761437891613525565b61429c565b506838ebad5cdc90280000928392506830ca024f987b9000009150565b905015155f614261565b505050505068056bc75e2d631000009081908290565b6143d691503d805f833e6143ce8183613504565b81019061406e565b5f6141e7565b5f929194506143f66044913d8086833e6143ce8183613504565b949192506141b5565b6718fae27693b40000811061447157674c53ecdc18a600008111614464576718fae27693b3ffff19810190811161322557606c810290808204606c1490151715613225576103e8900467120a871cc0020000018067120a871cc0020000116132255790565b506717979cfe362a000090565b5067120a871cc00200009056fe9b779b17422d0df92223018b32b4d1fa46e071723d6817e2486d003becc55f00a26469706673582212202a707e09352835a23f05c925bb49ed970048c3200ce83065d76d80c26e5e5c0864736f6c63430008210033","linkReferences":{}},"methodIdentifiers":{"BONUS_2_MATCH()":"606fc7e2","BONUS_3_MATCH()":"223345cb","BONUS_4_PLUS()":"566e1fa5","COUNT_MULT_TIER_1()":"3e40f177","COUNT_MULT_TIER_2()":"20cd36a6","COUNT_MULT_TIER_3()":"eb3ca580","COUNT_MULT_TIER_4()":"3f348db7","COUNT_MULT_TIER_5()":"b8c657bd","COUNT_TIER_1()":"53589810","COUNT_TIER_2()":"db3ece13","COUNT_TIER_3()":"7a7ba6cd","COUNT_TIER_4()":"dd93bfd9","MAX_BET_AMOUNT()":"309167f5","MAX_PAYOUT_PER_BET()":"74e01f84","MAX_ROUND_PAYOUTS()":"66c7ec97","MIN_IMBALANCE_FOR_FULL_BONUS()":"2664d755","MIN_PARLAY_MULTIPLIER()":"e28a8af8","PARLAY_MULTIPLIER_10_MATCHES()":"e4ed0b34","PARLAY_MULTIPLIER_1_MATCH()":"5698d942","PARLAY_MULTIPLIER_2_MATCHES()":"17a4accd","PARLAY_MULTIPLIER_3_MATCHES()":"b13b5369","PARLAY_MULTIPLIER_4_MATCHES()":"8b2270c6","PARLAY_MULTIPLIER_5_MATCHES()":"4911f82b","PARLAY_MULTIPLIER_6_MATCHES()":"8af012cd","PARLAY_MULTIPLIER_7_MATCHES()":"d527e20e","PARLAY_MULTIPLIER_8_MATCHES()":"67eeeb13","PARLAY_MULTIPLIER_9_MATCHES()":"1bf82bd9","PROTOCOL_FEE()":"0b4501fd","RESERVE_TIER_1()":"0a981246","RESERVE_TIER_2()":"29ca092d","RESERVE_TIER_3()":"e5184cfd","SEASON_POOL_SHARE()":"16a51ff4","SEED_AWAY_POOL()":"fdf68fdd","SEED_DRAW_POOL()":"530bae83","SEED_HOME_POOL()":"19598475","SEED_PER_MATCH()":"5e1e964b","SEED_PER_ROUND()":"2aa8f7b1","TIER_1_DECAY()":"fcbf0465","TIER_2_DECAY()":"4a0f878c","TIER_3_DECAY()":"dbeac414","TIER_4_DECAY()":"d1c35bd5","VIRTUAL_LIQUIDITY_MULTIPLIER()":"451f2e4b","WINNER_SHARE()":"dbe3010c","betParlayReserve(uint256)":"3d8e22d5","bets(uint256)":"22af00fa","claimWinnings(uint256,uint256)":"286db5c2","distributeSeasonRewards(address,uint256)":"2cac7212","emergencyRecoverSeasonPool(uint256)":"1c8c259f","finalizeRoundRevenue(uint256)":"4b451163","gameEngine()":"e5336276","getAllMatchOdds(uint256)":"dfefe6bb","getBet(uint256)":"061e494f","getBetPredictions(uint256)":"86c932f4","getCurrentParlayMultiplier(uint256,uint256[],uint256)":"0c7d2bae","getLockedOdds(uint256,uint256)":"d25ab4ef","getMarketOdds(uint256,uint256,uint8)":"ac7d82a4","getMatchPoolData(uint256,uint256)":"329fb636","getRoundAccounting(uint256)":"ab66b980","getUserBets(address)":"2d56657d","leagueToken()":"759aa03f","liquidityPoolV2()":"ffaa5bc3","nextBetId()":"9aca2792","owner()":"8da5cb5b","placeBet(uint256[],uint8[],uint256)":"8644c39b","previewBetPayout(uint256)":"da8bb4f1","previewMatchOdds(uint256,uint256)":"aba425f2","protocolTreasury()":"803db96d","renounceOwnership()":"715018a6","rewardsDistributor()":"3f2a5540","roundAccounting(uint256)":"0b2c1647","seasonRewardPool()":"9ba39fb0","seedRoundPools(uint256)":"d33d8f3b","setRewardsDistributor(address)":"d1f5c33b","settleRound(uint256)":"d2b48cd3","transferOwnership(address)":"f2fde38b","userBets(address,uint256)":"8068aa68"},"id":38}