{"abi":[{"type":"constructor","inputs":[{"name":"_linkAddress","type":"address","internalType":"address"},{"name":"_subscriptionId","type":"uint256","internalType":"uint256"}],"stateMutability":"nonpayable"},{"type":"receive","stateMutability":"payable"},{"type":"function","name":"MATCHES_PER_ROUND","inputs":[],"outputs":[{"name":"","type":"uint256","internalType":"uint256"}],"stateMutability":"view"},{"type":"function","name":"ROUNDS_PER_SEASON","inputs":[],"outputs":[{"name":"","type":"uint256","internalType":"uint256"}],"stateMutability":"view"},{"type":"function","name":"ROUND_DURATION","inputs":[],"outputs":[{"name":"","type":"uint256","internalType":"uint256"}],"stateMutability":"view"},{"type":"function","name":"TEAMS_COUNT","inputs":[],"outputs":[{"name":"","type":"uint256","internalType":"uint256"}],"stateMutability":"view"},{"type":"function","name":"VRF_TIMEOUT","inputs":[],"outputs":[{"name":"","type":"uint256","internalType":"uint256"}],"stateMutability":"view"},{"type":"function","name":"acceptOwnership","inputs":[],"outputs":[],"stateMutability":"nonpayable"},{"type":"function","name":"callbackGasLimit","inputs":[],"outputs":[{"name":"","type":"uint32","internalType":"uint32"}],"stateMutability":"view"},{"type":"function","name":"currentRoundId","inputs":[],"outputs":[{"name":"","type":"uint256","internalType":"uint256"}],"stateMutability":"view"},{"type":"function","name":"currentSeasonId","inputs":[],"outputs":[{"name":"","type":"uint256","internalType":"uint256"}],"stateMutability":"view"},{"type":"function","name":"emergencySettleRound","inputs":[{"name":"roundId","type":"uint256","internalType":"uint256"},{"name":"seed","type":"uint256","internalType":"uint256"}],"outputs":[],"stateMutability":"nonpayable"},{"type":"function","name":"getCurrentRound","inputs":[],"outputs":[{"name":"","type":"uint256","internalType":"uint256"}],"stateMutability":"view"},{"type":"function","name":"getCurrentSeason","inputs":[],"outputs":[{"name":"","type":"uint256","internalType":"uint256"}],"stateMutability":"view"},{"type":"function","name":"getLastTestVRFResult","inputs":[],"outputs":[{"name":"requestId","type":"uint256","internalType":"uint256"},{"name":"exists","type":"bool","internalType":"bool"},{"name":"fulfilled","type":"bool","internalType":"bool"},{"name":"requestTime","type":"uint256","internalType":"uint256"},{"name":"randomWords","type":"uint256[]","internalType":"uint256[]"}],"stateMutability":"view"},{"type":"function","name":"getMatch","inputs":[{"name":"roundId","type":"uint256","internalType":"uint256"},{"name":"matchIndex","type":"uint256","internalType":"uint256"}],"outputs":[{"name":"","type":"tuple","internalType":"struct GameEngine.Match","components":[{"name":"homeTeamId","type":"uint256","internalType":"uint256"},{"name":"awayTeamId","type":"uint256","internalType":"uint256"},{"name":"homeScore","type":"uint8","internalType":"uint8"},{"name":"awayScore","type":"uint8","internalType":"uint8"},{"name":"outcome","type":"uint8","internalType":"enum GameEngine.MatchOutcome"},{"name":"settled","type":"bool","internalType":"bool"},{"name":"homeOdds","type":"uint256","internalType":"uint256"},{"name":"awayOdds","type":"uint256","internalType":"uint256"},{"name":"drawOdds","type":"uint256","internalType":"uint256"}]}],"stateMutability":"view"},{"type":"function","name":"getRequestStatus","inputs":[{"name":"requestId","type":"uint256","internalType":"uint256"}],"outputs":[{"name":"exists","type":"bool","internalType":"bool"},{"name":"fulfilled","type":"bool","internalType":"bool"},{"name":"roundId","type":"uint256","internalType":"uint256"}],"stateMutability":"view"},{"type":"function","name":"getRound","inputs":[{"name":"roundId","type":"uint256","internalType":"uint256"}],"outputs":[{"name":"","type":"tuple","internalType":"struct GameEngine.Round","components":[{"name":"roundId","type":"uint256","internalType":"uint256"},{"name":"seasonId","type":"uint256","internalType":"uint256"},{"name":"startTime","type":"uint256","internalType":"uint256"},{"name":"vrfRequestId","type":"uint256","internalType":"uint256"},{"name":"settled","type":"bool","internalType":"bool"},{"name":"matches","type":"tuple[10]","internalType":"struct GameEngine.Match[10]","components":[{"name":"homeTeamId","type":"uint256","internalType":"uint256"},{"name":"awayTeamId","type":"uint256","internalType":"uint256"},{"name":"homeScore","type":"uint8","internalType":"uint8"},{"name":"awayScore","type":"uint8","internalType":"uint8"},{"name":"outcome","type":"uint8","internalType":"enum GameEngine.MatchOutcome"},{"name":"settled","type":"bool","internalType":"bool"},{"name":"homeOdds","type":"uint256","internalType":"uint256"},{"name":"awayOdds","type":"uint256","internalType":"uint256"},{"name":"drawOdds","type":"uint256","internalType":"uint256"}]}]}],"stateMutability":"view"},{"type":"function","name":"getRoundMatches","inputs":[{"name":"roundId","type":"uint256","internalType":"uint256"}],"outputs":[{"name":"","type":"tuple[]","internalType":"struct GameEngine.Match[]","components":[{"name":"homeTeamId","type":"uint256","internalType":"uint256"},{"name":"awayTeamId","type":"uint256","internalType":"uint256"},{"name":"homeScore","type":"uint8","internalType":"uint8"},{"name":"awayScore","type":"uint8","internalType":"uint8"},{"name":"outcome","type":"uint8","internalType":"enum GameEngine.MatchOutcome"},{"name":"settled","type":"bool","internalType":"bool"},{"name":"homeOdds","type":"uint256","internalType":"uint256"},{"name":"awayOdds","type":"uint256","internalType":"uint256"},{"name":"drawOdds","type":"uint256","internalType":"uint256"}]}],"stateMutability":"view"},{"type":"function","name":"getSeason","inputs":[{"name":"seasonId","type":"uint256","internalType":"uint256"}],"outputs":[{"name":"","type":"tuple","internalType":"struct GameEngine.Season","components":[{"name":"seasonId","type":"uint256","internalType":"uint256"},{"name":"startTime","type":"uint256","internalType":"uint256"},{"name":"currentRound","type":"uint256","internalType":"uint256"},{"name":"active","type":"bool","internalType":"bool"},{"name":"completed","type":"bool","internalType":"bool"},{"name":"winningTeamId","type":"uint256","internalType":"uint256"}]}],"stateMutability":"view"},{"type":"function","name":"getSeasonStandings","inputs":[{"name":"seasonId","type":"uint256","internalType":"uint256"}],"outputs":[{"name":"","type":"tuple[]","internalType":"struct GameEngine.Team[]","components":[{"name":"name","type":"string","internalType":"string"},{"name":"wins","type":"uint256","internalType":"uint256"},{"name":"draws","type":"uint256","internalType":"uint256"},{"name":"losses","type":"uint256","internalType":"uint256"},{"name":"points","type":"uint256","internalType":"uint256"},{"name":"goalsFor","type":"uint256","internalType":"uint256"},{"name":"goalsAgainst","type":"uint256","internalType":"uint256"}]}],"stateMutability":"view"},{"type":"function","name":"getTeam","inputs":[{"name":"teamId","type":"uint256","internalType":"uint256"}],"outputs":[{"name":"","type":"tuple","internalType":"struct GameEngine.Team","components":[{"name":"name","type":"string","internalType":"string"},{"name":"wins","type":"uint256","internalType":"uint256"},{"name":"draws","type":"uint256","internalType":"uint256"},{"name":"losses","type":"uint256","internalType":"uint256"},{"name":"points","type":"uint256","internalType":"uint256"},{"name":"goalsFor","type":"uint256","internalType":"uint256"},{"name":"goalsAgainst","type":"uint256","internalType":"uint256"}]}],"stateMutability":"view"},{"type":"function","name":"getTeamStanding","inputs":[{"name":"seasonId","type":"uint256","internalType":"uint256"},{"name":"teamId","type":"uint256","internalType":"uint256"}],"outputs":[{"name":"","type":"tuple","internalType":"struct GameEngine.Team","components":[{"name":"name","type":"string","internalType":"string"},{"name":"wins","type":"uint256","internalType":"uint256"},{"name":"draws","type":"uint256","internalType":"uint256"},{"name":"losses","type":"uint256","internalType":"uint256"},{"name":"points","type":"uint256","internalType":"uint256"},{"name":"goalsFor","type":"uint256","internalType":"uint256"},{"name":"goalsAgainst","type":"uint256","internalType":"uint256"}]}],"stateMutability":"view"},{"type":"function","name":"getTestVRFResult","inputs":[{"name":"requestId","type":"uint256","internalType":"uint256"}],"outputs":[{"name":"exists","type":"bool","internalType":"bool"},{"name":"fulfilled","type":"bool","internalType":"bool"},{"name":"requestTime","type":"uint256","internalType":"uint256"},{"name":"randomWords","type":"uint256[]","internalType":"uint256[]"}],"stateMutability":"view"},{"type":"function","name":"isRoundSettled","inputs":[{"name":"roundId","type":"uint256","internalType":"uint256"}],"outputs":[{"name":"","type":"bool","internalType":"bool"}],"stateMutability":"view"},{"type":"function","name":"keyHash","inputs":[],"outputs":[{"name":"","type":"bytes32","internalType":"bytes32"}],"stateMutability":"view"},{"type":"function","name":"lastTestRequestId","inputs":[],"outputs":[{"name":"","type":"uint256","internalType":"uint256"}],"stateMutability":"view"},{"type":"function","name":"linkToken","inputs":[],"outputs":[{"name":"","type":"address","internalType":"contract LinkTokenInterface"}],"stateMutability":"view"},{"type":"function","name":"numWords","inputs":[],"outputs":[{"name":"","type":"uint32","internalType":"uint32"}],"stateMutability":"view"},{"type":"function","name":"owner","inputs":[],"outputs":[{"name":"","type":"address","internalType":"address"}],"stateMutability":"view"},{"type":"function","name":"rawFulfillRandomWords","inputs":[{"name":"requestId","type":"uint256","internalType":"uint256"},{"name":"randomWords","type":"uint256[]","internalType":"uint256[]"}],"outputs":[],"stateMutability":"nonpayable"},{"type":"function","name":"requestConfirmations","inputs":[],"outputs":[{"name":"","type":"uint16","internalType":"uint16"}],"stateMutability":"view"},{"type":"function","name":"requestMatchResults","inputs":[{"name":"enableNativePayment","type":"bool","internalType":"bool"}],"outputs":[{"name":"requestId","type":"uint256","internalType":"uint256"}],"stateMutability":"nonpayable"},{"type":"function","name":"requestRandomSample","inputs":[{"name":"enableNativePayment","type":"bool","internalType":"bool"},{"name":"wordsToRequest","type":"uint32","internalType":"uint32"}],"outputs":[{"name":"requestId","type":"uint256","internalType":"uint256"}],"stateMutability":"nonpayable"},{"type":"function","name":"roundVRFRequestTime","inputs":[{"name":"","type":"uint256","internalType":"uint256"}],"outputs":[{"name":"","type":"uint256","internalType":"uint256"}],"stateMutability":"view"},{"type":"function","name":"rounds","inputs":[{"name":"","type":"uint256","internalType":"uint256"}],"outputs":[{"name":"roundId","type":"uint256","internalType":"uint256"},{"name":"seasonId","type":"uint256","internalType":"uint256"},{"name":"startTime","type":"uint256","internalType":"uint256"},{"name":"vrfRequestId","type":"uint256","internalType":"uint256"},{"name":"settled","type":"bool","internalType":"bool"}],"stateMutability":"view"},{"type":"function","name":"s_subscriptionId","inputs":[],"outputs":[{"name":"","type":"uint256","internalType":"uint256"}],"stateMutability":"view"},{"type":"function","name":"s_vrfCoordinator","inputs":[],"outputs":[{"name":"","type":"address","internalType":"contract IVRFCoordinatorV2Plus"}],"stateMutability":"view"},{"type":"function","name":"seasonStandings","inputs":[{"name":"","type":"uint256","internalType":"uint256"},{"name":"","type":"uint256","internalType":"uint256"}],"outputs":[{"name":"name","type":"string","internalType":"string"},{"name":"wins","type":"uint256","internalType":"uint256"},{"name":"draws","type":"uint256","internalType":"uint256"},{"name":"losses","type":"uint256","internalType":"uint256"},{"name":"points","type":"uint256","internalType":"uint256"},{"name":"goalsFor","type":"uint256","internalType":"uint256"},{"name":"goalsAgainst","type":"uint256","internalType":"uint256"}],"stateMutability":"view"},{"type":"function","name":"seasons","inputs":[{"name":"","type":"uint256","internalType":"uint256"}],"outputs":[{"name":"seasonId","type":"uint256","internalType":"uint256"},{"name":"startTime","type":"uint256","internalType":"uint256"},{"name":"currentRound","type":"uint256","internalType":"uint256"},{"name":"active","type":"bool","internalType":"bool"},{"name":"completed","type":"bool","internalType":"bool"},{"name":"winningTeamId","type":"uint256","internalType":"uint256"}],"stateMutability":"view"},{"type":"function","name":"setCoordinator","inputs":[{"name":"_vrfCoordinator","type":"address","internalType":"address"}],"outputs":[],"stateMutability":"nonpayable"},{"type":"function","name":"setRoundVRFRequestTime","inputs":[{"name":"roundId","type":"uint256","internalType":"uint256"},{"name":"timestamp","type":"uint256","internalType":"uint256"}],"outputs":[],"stateMutability":"nonpayable"},{"type":"function","name":"startRound","inputs":[],"outputs":[],"stateMutability":"nonpayable"},{"type":"function","name":"startSeason","inputs":[],"outputs":[],"stateMutability":"nonpayable"},{"type":"function","name":"teams","inputs":[{"name":"","type":"uint256","internalType":"uint256"}],"outputs":[{"name":"name","type":"string","internalType":"string"},{"name":"wins","type":"uint256","internalType":"uint256"},{"name":"draws","type":"uint256","internalType":"uint256"},{"name":"losses","type":"uint256","internalType":"uint256"},{"name":"points","type":"uint256","internalType":"uint256"},{"name":"goalsFor","type":"uint256","internalType":"uint256"},{"name":"goalsAgainst","type":"uint256","internalType":"uint256"}],"stateMutability":"view"},{"type":"function","name":"testVRFRequests","inputs":[{"name":"","type":"uint256","internalType":"uint256"}],"outputs":[{"name":"exists","type":"bool","internalType":"bool"},{"name":"fulfilled","type":"bool","internalType":"bool"},{"name":"requestTime","type":"uint256","internalType":"uint256"}],"stateMutability":"view"},{"type":"function","name":"transferOwnership","inputs":[{"name":"to","type":"address","internalType":"address"}],"outputs":[],"stateMutability":"nonpayable"},{"type":"function","name":"updateVRFConfig","inputs":[{"name":"_callbackGasLimit","type":"uint32","internalType":"uint32"},{"name":"_requestConfirmations","type":"uint16","internalType":"uint16"},{"name":"_keyHash","type":"bytes32","internalType":"bytes32"}],"outputs":[],"stateMutability":"nonpayable"},{"type":"function","name":"vrfRequests","inputs":[{"name":"","type":"uint256","internalType":"uint256"}],"outputs":[{"name":"exists","type":"bool","internalType":"bool"},{"name":"fulfilled","type":"bool","internalType":"bool"},{"name":"roundId","type":"uint256","internalType":"uint256"}],"stateMutability":"view"},{"type":"function","name":"withdrawLink","inputs":[],"outputs":[],"stateMutability":"nonpayable"},{"type":"function","name":"withdrawNative","inputs":[{"name":"amount","type":"uint256","internalType":"uint256"}],"outputs":[],"stateMutability":"nonpayable"},{"type":"event","name":"CoordinatorSet","inputs":[{"name":"vrfCoordinator","type":"address","indexed":false,"internalType":"address"}],"anonymous":false},{"type":"event","name":"MatchSettled","inputs":[{"name":"roundId","type":"uint256","indexed":true,"internalType":"uint256"},{"name":"matchIndex","type":"uint256","indexed":false,"internalType":"uint256"},{"name":"homeTeamId","type":"uint256","indexed":false,"internalType":"uint256"},{"name":"awayTeamId","type":"uint256","indexed":false,"internalType":"uint256"},{"name":"homeScore","type":"uint8","indexed":false,"internalType":"uint8"},{"name":"awayScore","type":"uint8","indexed":false,"internalType":"uint8"},{"name":"outcome","type":"uint8","indexed":false,"internalType":"enum GameEngine.MatchOutcome"}],"anonymous":false},{"type":"event","name":"OwnershipTransferRequested","inputs":[{"name":"from","type":"address","indexed":true,"internalType":"address"},{"name":"to","type":"address","indexed":true,"internalType":"address"}],"anonymous":false},{"type":"event","name":"OwnershipTransferred","inputs":[{"name":"from","type":"address","indexed":true,"internalType":"address"},{"name":"to","type":"address","indexed":true,"internalType":"address"}],"anonymous":false},{"type":"event","name":"RoundSettled","inputs":[{"name":"roundId","type":"uint256","indexed":true,"internalType":"uint256"},{"name":"seasonId","type":"uint256","indexed":true,"internalType":"uint256"}],"anonymous":false},{"type":"event","name":"RoundStarted","inputs":[{"name":"roundId","type":"uint256","indexed":true,"internalType":"uint256"},{"name":"seasonId","type":"uint256","indexed":true,"internalType":"uint256"},{"name":"startTime","type":"uint256","indexed":false,"internalType":"uint256"}],"anonymous":false},{"type":"event","name":"SeasonEnded","inputs":[{"name":"seasonId","type":"uint256","indexed":true,"internalType":"uint256"},{"name":"winningTeamId","type":"uint256","indexed":false,"internalType":"uint256"}],"anonymous":false},{"type":"event","name":"SeasonStarted","inputs":[{"name":"seasonId","type":"uint256","indexed":true,"internalType":"uint256"},{"name":"startTime","type":"uint256","indexed":false,"internalType":"uint256"}],"anonymous":false},{"type":"event","name":"TestVRFFulfilled","inputs":[{"name":"requestId","type":"uint256","indexed":true,"internalType":"uint256"},{"name":"randomWords","type":"uint256[]","indexed":false,"internalType":"uint256[]"}],"anonymous":false},{"type":"event","name":"TestVRFRequested","inputs":[{"name":"requestId","type":"uint256","indexed":true,"internalType":"uint256"},{"name":"timestamp","type":"uint256","indexed":false,"internalType":"uint256"}],"anonymous":false},{"type":"event","name":"VRFFulfilled","inputs":[{"name":"requestId","type":"uint256","indexed":true,"internalType":"uint256"},{"name":"roundId","type":"uint256","indexed":true,"internalType":"uint256"}],"anonymous":false},{"type":"event","name":"VRFRequested","inputs":[{"name":"roundId","type":"uint256","indexed":true,"internalType":"uint256"},{"name":"requestId","type":"uint256","indexed":false,"internalType":"uint256"},{"name":"paid","type":"uint256","indexed":false,"internalType":"uint256"}],"anonymous":false},{"type":"error","name":"OnlyCoordinatorCanFulfill","inputs":[{"name":"have","type":"address","internalType":"address"},{"name":"want","type":"address","internalType":"address"}]},{"type":"error","name":"OnlyOwnerOrCoordinator","inputs":[{"name":"have","type":"address","internalType":"address"},{"name":"owner","type":"address","internalType":"address"},{"name":"coordinator","type":"address","internalType":"address"}]},{"type":"error","name":"ZeroAddress","inputs":[]}],"bytecode":{"object":"0x60a0604052346123d3576156176040813803918261001c816123f6565b9384928339810103126123d35780516001600160a01b03811691908290036123d3576020015190331561238e575f8054336001600160a01b03199182161790915560028054739ddfaca8183c41ad55329bdeed9f6a8d53168b1b92169190911790557f787d74caea10b2b357790d5b5247c2f63d1d91572a9846f780606e4d953677ae600455600580546001600160501b031916660a0003001e84801790556080526003556100c96123d7565b6100d360406123f6565b601281527113585b98da195cdd195c88159a5c9d1d585b60721b6020820152815260208101905f8252604081015f8152606082015f8152608083015f815260a08401915f835260c08501935f85525f8052600b60205260405f20955196875160018060401b038111611469578754600181811c91168015612384575b602082101461144b57601f8111612333575b506020601f82116001146122ce5781906006999a5f926122c3575b50508160011b915f199060031b1c19161788555b516001880155516002870155516003860155516004850155516005840155519101556101ba6123d7565b6101c460406123f6565b6011815270131a5d995c9c1bdbdb08111a59da5d185b607a1b6020820152815260208101905f8252604081015f8152606082015f8152608083015f815260a08401915f835260c08501935f855260015f52600b60205260405f20955196875160018060401b038111611469578754600181811c911680156122b9575b602082101461144b57601f8111612268575b506020601f82116001146122035781906006999a5f926121f8575b50508160011b915f199060031b1c19161788555b516001880155516002870155516003860155516004850155516005840155519101556102ab6123d7565b6102b560406123f6565b600e81526d4368656c7365612043727970746f60901b6020820152815260208101905f8252604081015f8152606082015f8152608083015f815260a08401915f835260c08501935f855260025f52600b60205260405f20955196875160018060401b038111611469578754600181811c911680156121ee575b602082101461144b57601f811161219d575b506020601f82116001146121385781906006999a5f9261212d575b50508160011b915f199060031b1c19161788555b516001880155516002870155516003860155516004850155516005840155519101556103996123d7565b6103a360406123f6565b600c81526b417273656e616c205765623360a01b6020820152815260208101905f8252604081015f8152606082015f8152608083015f815260a08401915f835260c08501935f855260035f52600b60205260405f20955196875160018060401b038111611469578754600181811c91168015612123575b602082101461144b57601f81116120d2575b506020601f821160011461206d5781906006999a5f92612062575b50508160011b915f199060031b1c19161788555b516001880155516002870155516003860155516004850155516005840155519101556104856123d7565b61048f60406123f6565b600f81526e2a37ba3a32b73430b69021b430b4b760891b6020820152815260208101905f8252604081015f8152606082015f8152608083015f815260a08401915f835260c08501935f855260045f52600b60205260405f20955196875160018060401b038111611469578754600181811c91168015612058575b602082101461144b57601f8111612007575b506020601f8211600114611fa25781906006999a5f92611f97575b50508160011b915f199060031b1c19161788555b516001880155516002870155516003860155516004850155516005840155519101556105746123d7565b61057e60406123f6565b601081526f4d616e6368657374657220426c6f636b60801b6020820152815260208101905f8252604081015f8152606082015f8152608083015f815260a08401915f835260c08501935f855260055f52600b60205260405f20955196875160018060401b038111611469578754600181811c91168015611f8d575b602082101461144b57601f8111611f3c575b506020601f8211600114611ed75781906006999a5f92611ecc575b50508160011b915f199060031b1c19161788555b516001880155516002870155516003860155516004850155516005840155519101556106646123d7565b61066e60406123f6565b600e81526d4e6577636173746c65204e6f646560901b6020820152815260208101905f8252604081015f8152606082015f8152608083015f815260a08401915f835260c08501935f855260065f52600b60205260405f20955196875160018060401b038111611469578754600181811c91168015611ec2575b602082101461144b57601f8111611e71575b506020601f8211600114611e0c5781906006999a5f92611e01575b50508160011b915f199060031b1c19161788555b516001880155516002870155516003860155516004850155516005840155519101556107526123d7565b61075c60406123f6565b600e81526d213934b3b43a37b7102a37b5b2b760911b6020820152815260208101905f8252604081015f8152606082015f8152608083015f815260a08401915f835260c08501935f855260075f52600b60205260405f20955196875160018060401b038111611469578754600181811c91168015611df7575b602082101461144b57601f8111611da6575b506020601f8211600114611d415781906006999a5f92611d36575b50508160011b915f199060031b1c19161788555b516001880155516002870155516003860155516004850155516005840155519101556108406123d7565b61084a60406123f6565b600a8152694173746f6e204d65746160b01b6020820152815260208101905f8252604081015f8152606082015f8152608083015f815260a08401915f835260c08501935f855260085f52600b60205260405f20955196875160018060401b038111611469578754600181811c91168015611d2c575b602082101461144b57601f8111611cdb575b506020601f8211600114611c765781906006999a5f92611c6b575b50508160011b915f199060031b1c19161788555b5160018801555160028701555160038601555160048501555160058401555191015561092a6123d7565b61093460406123f6565b600d81526c0aecae6e84090c2da4090c2e6d609b1b6020820152815260208101905f8252604081015f8152606082015f8152608083015f815260a08401915f835260c08501935f855260095f52600b60205260405f20955196875160018060401b038111611469578754600181811c91168015611c61575b602082101461144b57601f8111611c10575b506020601f8211600114611bab5781906006999a5f92611ba0575b50508160011b915f199060031b1c19161788555b51600188015551600287015551600386015551600485015551600584015551910155610a176123d7565b610a2160406123f6565b600d81526c22bb32b93a37b71022ba3432b960991b6020820152815260208101905f8252604081015f8152606082015f8152608083015f815260a08401915f835260c08501935f8552600a5f52600b60205260405f20955196875160018060401b038111611469578754600181811c91168015611b96575b602082101461144b57601f8111611b45575b506020601f8211600114611ae05781906006999a5f92611ad5575b50508160011b915f199060031b1c19161788555b51600188015551600287015551600386015551600485015551600584015551910155610b046123d7565b610b0e60406123f6565b600e81526d4c6569636573746572204c696e6b60901b6020820152815260208101905f8252604081015f8152606082015f8152608083015f815260a08401915f835260c08501935f8552600b5f52600b60205260405f20955196875160018060401b038111611469578754600181811c91168015611acb575b602082101461144b57601f8111611a7a575b506020601f8211600114611a155781906006999a5f92611a0a575b50508160011b915f199060031b1c19161788555b51600188015551600287015551600386015551600485015551600584015551910155610bf26123d7565b610bfc60406123f6565b600d81526c15dbdb1d995cc815d85b1b195d609a1b6020820152815260208101905f8252604081015f8152606082015f8152608083015f815260a08401915f835260c08501935f8552600c5f52600b60205260405f20955196875160018060401b038111611469578754600181811c91168015611a00575b602082101461144b57601f81116119af575b506020601f821160011461194a5781906006999a5f9261193f575b50508160011b915f199060031b1c19161788555b51600188015551600287015551600386015551600485015551600584015551910155610cdf6123d7565b610ce960406123f6565b601781527f4372797374616c2050616c6163652050726f746f636f6c0000000000000000006020820152815260208101905f8252604081015f8152606082015f8152608083015f815260a08401915f835260c08501935f8552600d5f52600b60205260405f20955196875160018060401b038111611469578754600181811c91168015611935575b602082101461144b57601f81116118e4575b506020601f821160011461187f5781906006999a5f92611874575b50508160011b915f199060031b1c19161788555b51600188015551600287015551600386015551600485015551600584015551910155610ddc6123d7565b610de660406123f6565b600b81526a46756c68616d20466f726b60a81b6020820152815260208101905f8252604081015f8152606082015f8152608083015f815260a08401915f835260c08501935f8552600e5f52600b60205260405f20955196875160018060401b038111611469578754600181811c9116801561186a575b602082101461144b57601f8111611819575b506020601f82116001146117b45781906006999a5f926117a9575b50508160011b915f199060031b1c19161788555b51600188015551600287015551600386015551600485015551600584015551910155610ec76123d7565b610ed160406123f6565b601081526f4272656e74666f72642042726964676560801b6020820152815260208101905f8252604081015f8152606082015f8152608083015f815260a08401915f835260c08501935f8552600f5f52600b60205260405f20955196875160018060401b038111611469578754600181811c9116801561179f575b602082101461144b57601f811161174e575b506020601f82116001146116e95781906006999a5f926116de575b50508160011b915f199060031b1c19161788555b51600188015551600287015551600386015551600485015551600584015551910155610fb76123d7565b610fc160406123f6565b6011815270426f75726e656d6f75746820427974657360781b6020820152815260208101905f8252604081015f8152606082015f8152608083015f815260a08401915f835260c08501935f855260105f52600b60205260405f20955196875160018060401b038111611469578754600181811c911680156116d4575b602082101461144b57601f8111611683575b506020601f821160011461161e5781906006999a5f92611613575b50508160011b915f199060031b1c19161788555b516001880155516002870155516003860155516004850155516005840155519101556110a86123d7565b6110b260406123f6565b600e81526d139bdd1d1a5b99da185b4813919560921b6020820152815260208101905f8252604081015f8152606082015f8152608083015f815260a08401915f835260c08501935f855260115f52600b60205260405f20955196875160018060401b038111611469578754600181811c91168015611609575b602082101461144b57601f81116115b8575b506020601f82116001146115535781906006999a5f92611548575b50508160011b915f199060031b1c19161788555b516001880155516002870155516003860155516004850155516005840155519101556111966123d7565b6111a060406123f6565b601181527014dbdd5d1a185b5c1d1bdb8814db585c9d607a1b6020820152815260208101905f8252604081015f8152606082015f8152608083015f815260a08401915f835260c08501935f855260125f52600b60205260405f20955196875160018060401b038111611469578754600181811c9116801561153e575b602082101461144b57601f81116114ed575b506020601f82116001146114885781906006999a5f9261147d575b50508160011b915f199060031b1c19161788555b516001880155516002870155516003860155516004850155516005840155519101556112876123d7565b61129160406123f6565b600c81526b2632b2b239902632b233b2b960a11b6020820152815260208101905f8252604081015f8152606082015f8152608083015f815260a08401915f835260c08501935f855260135f52600b60205260405f20955196875160018060401b038111611469578754600181811c9116801561145f575b602082101461144b57601f81116113fa575b506020601f82116001146113955781906006999a5f9261138a575b50508160011b915f199060031b1c19161788555b516001880155516002870155516003860155516004850155516005840155519101556040516131fb908161241c823960805181818161136d0152611a950152f35b015190505f80611335565b601f19821699895f52815f209a5f5b8181106113e257509160069a9b918460019594106113ca575b505050811b018855611349565b01515f1960f88460031b161c191690555f80806113bd565b838301518d556001909c019b602093840193016113a4565b8181111561131a57885f5260205f20601f830160051c9060208410611443575b81601f9101920160051c03905f5b82811061143657505061131a565b5f82820155600101611428565b5f915061141a565b634e487b7160e01b5f52602260045260245ffd5b90607f1690611308565b634e487b7160e01b5f52604160045260245ffd5b015190505f80611249565b601f19821699895f52815f209a5f5b8181106114d557509160069a9b918460019594106114bd575b505050811b01885561125d565b01515f1960f88460031b161c191690555f80806114b0565b838301518d556001909c019b60209384019301611497565b8181111561122e57885f5260205f20601f830160051c9060208410611536575b81601f9101920160051c03905f5b82811061152957505061122e565b5f8282015560010161151b565b5f915061150d565b90607f169061121c565b015190505f80611158565b601f19821699895f52815f209a5f5b8181106115a057509160069a9b91846001959410611588575b505050811b01885561116c565b01515f1960f88460031b161c191690555f808061157b565b838301518d556001909c019b60209384019301611562565b8181111561113d57885f5260205f20601f830160051c9060208410611601575b81601f9101920160051c03905f5b8281106115f457505061113d565b5f828201556001016115e6565b5f91506115d8565b90607f169061112b565b015190505f8061106a565b601f19821699895f52815f209a5f5b81811061166b57509160069a9b91846001959410611653575b505050811b01885561107e565b01515f1960f88460031b161c191690555f8080611646565b838301518d556001909c019b6020938401930161162d565b8181111561104f57885f5260205f20601f830160051c90602084106116cc575b81601f9101920160051c03905f5b8281106116bf57505061104f565b5f828201556001016116b1565b5f91506116a3565b90607f169061103d565b015190505f80610f79565b601f19821699895f52815f209a5f5b81811061173657509160069a9b9184600195941061171e575b505050811b018855610f8d565b01515f1960f88460031b161c191690555f8080611711565b838301518d556001909c019b602093840193016116f8565b81811115610f5e57885f5260205f20601f830160051c9060208410611797575b81601f9101920160051c03905f5b82811061178a575050610f5e565b5f8282015560010161177c565b5f915061176e565b90607f1690610f4c565b015190505f80610e89565b601f19821699895f52815f209a5f5b81811061180157509160069a9b918460019594106117e9575b505050811b018855610e9d565b01515f1960f88460031b161c191690555f80806117dc565b838301518d556001909c019b602093840193016117c3565b81811115610e6e57885f5260205f20601f830160051c9060208410611862575b81601f9101920160051c03905f5b828110611855575050610e6e565b5f82820155600101611847565b5f9150611839565b90607f1690610e5c565b015190505f80610d9e565b601f19821699895f52815f209a5f5b8181106118cc57509160069a9b918460019594106118b4575b505050811b018855610db2565b01515f1960f88460031b161c191690555f80806118a7565b838301518d556001909c019b6020938401930161188e565b81811115610d8357885f5260205f20601f830160051c906020841061192d575b81601f9101920160051c03905f5b828110611920575050610d83565b5f82820155600101611912565b5f9150611904565b90607f1690610d71565b015190505f80610ca1565b601f19821699895f52815f209a5f5b81811061199757509160069a9b9184600195941061197f575b505050811b018855610cb5565b01515f1960f88460031b161c191690555f8080611972565b838301518d556001909c019b60209384019301611959565b81811115610c8657885f5260205f20601f830160051c90602084106119f8575b81601f9101920160051c03905f5b8281106119eb575050610c86565b5f828201556001016119dd565b5f91506119cf565b90607f1690610c74565b015190505f80610bb4565b601f19821699895f52815f209a5f5b818110611a6257509160069a9b91846001959410611a4a575b505050811b018855610bc8565b01515f1960f88460031b161c191690555f8080611a3d565b838301518d556001909c019b60209384019301611a24565b81811115610b9957885f5260205f20601f830160051c9060208410611ac3575b81601f9101920160051c03905f5b828110611ab6575050610b99565b5f82820155600101611aa8565b5f9150611a9a565b90607f1690610b87565b015190505f80610ac6565b601f19821699895f52815f209a5f5b818110611b2d57509160069a9b91846001959410611b15575b505050811b018855610ada565b01515f1960f88460031b161c191690555f8080611b08565b838301518d556001909c019b60209384019301611aef565b81811115610aab57885f5260205f20601f830160051c9060208410611b8e575b81601f9101920160051c03905f5b828110611b81575050610aab565b5f82820155600101611b73565b5f9150611b65565b90607f1690610a99565b015190505f806109d9565b601f19821699895f52815f209a5f5b818110611bf857509160069a9b91846001959410611be0575b505050811b0188556109ed565b01515f1960f88460031b161c191690555f8080611bd3565b838301518d556001909c019b60209384019301611bba565b818111156109be57885f5260205f20601f830160051c9060208410611c59575b81601f9101920160051c03905f5b828110611c4c5750506109be565b5f82820155600101611c3e565b5f9150611c30565b90607f16906109ac565b015190505f806108ec565b601f19821699895f52815f209a5f5b818110611cc357509160069a9b91846001959410611cab575b505050811b018855610900565b01515f1960f88460031b161c191690555f8080611c9e565b838301518d556001909c019b60209384019301611c85565b818111156108d157885f5260205f20601f830160051c9060208410611d24575b81601f9101920160051c03905f5b828110611d175750506108d1565b5f82820155600101611d09565b5f9150611cfb565b90607f16906108bf565b015190505f80610802565b601f19821699895f52815f209a5f5b818110611d8e57509160069a9b91846001959410611d76575b505050811b018855610816565b01515f1960f88460031b161c191690555f8080611d69565b838301518d556001909c019b60209384019301611d50565b818111156107e757885f5260205f20601f830160051c9060208410611def575b81601f9101920160051c03905f5b828110611de25750506107e7565b5f82820155600101611dd4565b5f9150611dc6565b90607f16906107d5565b015190505f80610714565b601f19821699895f52815f209a5f5b818110611e5957509160069a9b91846001959410611e41575b505050811b018855610728565b01515f1960f88460031b161c191690555f8080611e34565b838301518d556001909c019b60209384019301611e1b565b818111156106f957885f5260205f20601f830160051c9060208410611eba575b81601f9101920160051c03905f5b828110611ead5750506106f9565b5f82820155600101611e9f565b5f9150611e91565b90607f16906106e7565b015190505f80610626565b601f19821699895f52815f209a5f5b818110611f2457509160069a9b91846001959410611f0c575b505050811b01885561063a565b01515f1960f88460031b161c191690555f8080611eff565b838301518d556001909c019b60209384019301611ee6565b8181111561060b57885f5260205f20601f830160051c9060208410611f85575b81601f9101920160051c03905f5b828110611f7857505061060b565b5f82820155600101611f6a565b5f9150611f5c565b90607f16906105f9565b015190505f80610536565b601f19821699895f52815f209a5f5b818110611fef57509160069a9b91846001959410611fd7575b505050811b01885561054a565b01515f1960f88460031b161c191690555f8080611fca565b838301518d556001909c019b60209384019301611fb1565b8181111561051b57885f5260205f20601f830160051c9060208410612050575b81601f9101920160051c03905f5b82811061204357505061051b565b5f82820155600101612035565b5f9150612027565b90607f1690610509565b015190505f80610447565b601f19821699895f52815f209a5f5b8181106120ba57509160069a9b918460019594106120a2575b505050811b01885561045b565b01515f1960f88460031b161c191690555f8080612095565b838301518d556001909c019b6020938401930161207c565b8181111561042c57885f5260205f20601f830160051c906020841061211b575b81601f9101920160051c03905f5b82811061210e57505061042c565b5f82820155600101612100565b5f91506120f2565b90607f169061041a565b015190505f8061035b565b601f19821699895f52815f209a5f5b81811061218557509160069a9b9184600195941061216d575b505050811b01885561036f565b01515f1960f88460031b161c191690555f8080612160565b838301518d556001909c019b60209384019301612147565b8181111561034057885f5260205f20601f830160051c90602084106121e6575b81601f9101920160051c03905f5b8281106121d9575050610340565b5f828201556001016121cb565b5f91506121bd565b90607f169061032e565b015190505f8061026d565b601f19821699895f52815f209a5f5b81811061225057509160069a9b91846001959410612238575b505050811b018855610281565b01515f1960f88460031b161c191690555f808061222b565b838301518d556001909c019b60209384019301612212565b8181111561025257885f5260205f20601f830160051c90602084106122b1575b81601f9101920160051c03905f5b8281106122a4575050610252565b5f82820155600101612296565b5f9150612288565b90607f1690610240565b015190505f8061017c565b601f19821699895f52815f209a5f5b81811061231b57509160069a9b91846001959410612303575b505050811b018855610190565b01515f1960f88460031b161c191690555f80806122f6565b838301518d556001909c019b602093840193016122dd565b8181111561016157885f5260205f20601f830160051c906020841061237c575b81601f9101920160051c03905f5b82811061236f575050610161565b5f82820155600101612361565b5f9150612353565b90607f169061014f565b60405162461bcd60e51b815260206004820152601860248201527f43616e6e6f7420736574206f776e657220746f207a65726f00000000000000006044820152606490fd5b5f80fd5b6040519060e082016001600160401b0381118382101761146957604052565b6040519190601f01601f191682016001600160401b038111838210176114695760405256fe6080604052600436101561001a575b3615610018575f80fd5b005b5f3560e01c80628e0f1b1461219557806301dae1961461217a5780630dd8997414612113578063107cfe511461208b57806313bb301a1461205e5780631a1d9252146120095780631fe543e314611f8057806324f7469714611f5d5780633ed2b77a14611f0457806350f778d714611ea357806355e3f08614611ac457806357970e9314611a805780635d610e6b14611a5657806361728f3914611a3957806361de5c14146119a25780636641ea08146119865780636999da131461171d578063699cb811146116c85780637504bc63146116ad57806379ba5097146116025780637ccfd7fc146115dc57806384276d81146115305780638ac00021146115135780638c65c81f146114b85780638da5cb5b146114915780638dc654a2146113405780638ea98117146112665780638f1327c0146110fb5780638f15802f14610fb5578063912e8a8414610d19578063952a963314610a0857806398a6ad93146109d65780639cbe5efd146109915780639eccacf6146109ae578063a32bf59714610991578063a43d8654146108c2578063ad7fa88b1461089b578063b0fb162f14610878578063b944de281461085b578063bf18497f14610787578063c559a68814610471578063d3b30b75146103e9578063d8a4676f14610406578063dc293382146103e9578063f2fde38b1461032a578063f4d1c5f61461030e578063f5d709a1146102a6578063f89f74bf1461028b5763faacd6d80361000e5734610287575f366003190112610287576102836102536127ac565b9160409593955195869586521515602086015215156040850152606084015260a0608084015260a0830190612285565b0390f35b5f80fd5b34610287575f366003190112610287576020604051600a8152f35b34610287576020366003190112610287576004355f52600960205260c060405f2080549060ff60018201549160028101546004600383015492015493604051958652602086015260408501528181161515606085015260081c161515608083015260a0820152f35b34610287575f366003190112610287576020604051611c208152f35b34610287576020366003190112610287576004356001600160a01b0381169081900361028757610358612bf3565b3381146103a457600180546001600160a01b031916821790555f80546001600160a01b0316907fed8889f560326eb138920d842192f0eb3dd22b4f139c87a2c57538e05bae12789080a3005b60405162461bcd60e51b815260206004820152601760248201527f43616e6e6f74207472616e7366657220746f2073656c660000000000000000006044820152606490fd5b34610287575f366003190112610287576020600654604051908152f35b34610287576020366003190112610287576004355f52600d60205260405f20604051610431816123e6565b815460ff808216151580845260089290921c1615156020808401829052600190940154604093840181905283519283529382015290810191909152606090f35b346102875761047f366122b8565b610487612bf3565b815f52600a60205260405f209060048201906104a760ff8354161561273a565b835f52600860205260405f20541561074a57835f52600860205260405f2054611c2081018091116106995742106106f657604051906102a06104e98184612401565b60148352601f19013660208401375f5b601481106106ad57505060018301926005015f5b600a811061056d57505050600160ff198254161790555480917f84ea2725ed7015ebac8f69258b09c394b1f22b1031d4393a1580b3935058d7dc5f80a3805f5260096020526024600260405f200154101561056457005b61001890613117565b61057781836125cd565b50908060011b91818304600214821517156106995761059f610599848761267e565b51612f86565b92600181018091116106995760019389926106626105e16105997f531a27ffbfe8adaf531e3c945d083676ca63bbe97edde0d5db77da2f6df99531958b61267e565b60028301805461ffff191660ff861617600883901b61ff00161781559390845463ff0000001916630100000017855560ff8281169082168082111561066b575050845462ff00001916620100001785555b6106468d54610640866125f4565b90612fd2565b60ff898554950154955460101c16916040519586958a87612778565b0390a20161050d565b111561068557845462ff0000191662020000178555610632565b845462ff0000191662030000178555610632565b634e487b7160e01b5f52601160045260245ffd5b60019060405160208101908482524460408201524260608201528860808201528260a082015260a081526106e260c082612401565b5190206106ef828661267e565b52016104f9565b60405162461bcd60e51b815260206004820152602660248201527f5652462074696d656f7574206e6f742072656163686564202d2077616974203260448201526520686f75727360d01b6064820152608490fd5b60405162461bcd60e51b8152602060048201526015602482015274159491881b9bdd081c995c5d595cdd1959081e595d605a1b6044820152606490fd5b34610287576020366003190112610287576040516101606004356107ab8284612401565b600a83526107c16020840192601f1901836126fc565b5f5b600a811061081b578284604051918291602083019060208452518091526040830191905f5b8181106107f6575050500390f35b9193509160206101208261080d60019488516122db565b0194019101918493926107e8565b600190825f52600a60205261083f61083982600560405f20016125cd565b506125f4565b610849828761267e565b52610854818661267e565b50016107c3565b34610287575f366003190112610287576020600f54604051908152f35b34610287575f36600319011261028757602061ffff600554821c16604051908152f35b34610287576108a9366122b8565b906108b2612bf3565b5f52600860205260405f20555f80f35b34610287576020366003190112610287575f60a06040516108e2816123cb565b82815282602082015282604082015282606082015282608082015201526004355f52600960205260c060405f2060405161091b816123cb565b8154918282526001810154906020830191825260028101546040840190815260038201549260a06004606087019460ff87161515865260ff608089019760081c161515875201549501948552604051958652516020860152516040850152511515606084015251151560808301525160a0820152f35b34610287575f366003190112610287576020600754604051908152f35b34610287575f366003190112610287576002546040516001600160a01b039091168152602090f35b34610287576020366003190112610287576004355f52600a602052602060ff600460405f200154166040519015158152f35b34610287575f36600319011261028757610a20612bf3565b60065480158015610cfd575b15610cc057610a3a90612670565b80600655600460405191610a4d836123cb565b808352610aca6020840142815260408501905f825260608601916001835260808701915f835260a08801955f87525f52600960205260405f2097518855516001880155516002870155610ab36003870192511515839060ff801983541691151516179055565b51815461ff00191690151560081b61ff0016179055565b519101555f5b60148110610b07576006547f8d160eff266df162107c57259a1f1e71787bd4ab800800826bd189d6f2f3e83c6020604051428152a2005b805f52600b60205260405f2090610b2960405192610b2484612379565b612422565b825260208201915f8352604081015f8152606082015f8152608083015f815260a08401915f835260c08501935f85526006545f52600c60205260405f20875f5260205260405f2095519788516001600160401b038111610cac57610b8d8854612341565b601f8111610c69575b506020601f8211600114610bfe57908060069897969594939260019c5f92610bf3575b50505f19600383901b1c1916908b1b1788555b51898801555160028701555160038601555160048501555160058401555191015501610ad0565b015190508c80610bb9565b601f19821690895f52805f20915f5b818110610c51575091839160019d60069b9a99989796958f9510610c39575b505050811b018855610bcc565b01515f1960f88460031b161c191690558c8080610c2c565b8d830151845560019093019260209283019201610c0d565b81811115610b9657610c9e90895f5260205f2090601f840160051c9060208510610ca4575b601f82910160051c03910161271f565b8a610b96565b5f9150610c8e565b634e487b7160e01b5f52604160045260245ffd5b60405162461bcd60e51b8152602060048201526015602482015274536561736f6e20616c72656164792061637469766560581b6044820152606490fd5b50805f52600960205260ff600360405f20015460081c16610a2c565b3461028757604036600319011261028757610d326124fc565b6024359063ffffffff821680920361028757610d4c612bf3565b81151580610faa575b15610f6d57610de46020915f9360018060a01b0360025416916004549163ffffffff60035492610d986005549160405190610d8f826123b0565b15158152612f5e565b9360405195610da6876123cb565b86528886015261ffff81891c166040860152166060840152608083015260a0820152604051948580948193634d8e1c2f60e11b83526004830161269f565b03925af1908115610f62575f91610f30575b50602090604051610e078382612401565b5f81525f36813760405160808101908082106001600160401b03831117610cac57600291604052600181528481015f8152610e85604083019142835260608401958652865f52600e8852610e6e60405f2094511515859060ff801983541691151516179055565b51835461ff00191690151560081b61ff0016178355565b516001820155019051908151916001600160401b038311610cac57600160401b8311610cac5784908254848455808510610f15575b5001905f52835f205f5b838110610f0357858580600f55807fc37e92ca7d2879631447927f9a1127694166089c63214abc747f509eb92d004b83604051428152a2604051908152f35b82518282015591850191600101610ec4565b610f2a90845f528580855f200191039061271f565b86610eba565b90506020813d602011610f5a575b81610f4b60209383612401565b81010312610287575181610df6565b3d9150610f3e565b6040513d5f823e3d90fd5b60405162461bcd60e51b815260206004820152601560248201527406e756d576f726473206d75737420626520312d313605c1b6044820152606490fd5b50600a821115610d55565b34610287576020366003190112610287576040516004356102a0610fd98184612401565b60148352601f19015f5b8181106110e45750505f5b6014811061105d57826040518091602082016020835281518091526040830190602060408260051b8601019301915f905b82821061102e57505050500390f35b9193600191939550602061104d8192603f198a82030186528851612233565b960192019201859493919261101f565b600190825f52600c60205260405f20815f5260205260405f2060066040519161108583612379565b61108e81612422565b8352848101546020840152600281015460408401526003810154606084015260048101546080840152600581015460a0840152015460c08201526110d2828661267e565b526110dd818561267e565b5001610fee565b6020906110ef61250b565b82828701015201610fe3565b3461028757602036600319011261028757604051611118816123cb565b5f81525f60208201525f60408201525f60608201525f608082015261014090604051906111458383612401565b5f5b838110611251575060a001526004355f52600a60205260405f20906040519161116f836123cb565b805483526001810154602084019081526002820154604085019081526003830154916060860192835260ff600485015416936080870194151585526040519586018681106001600160401b03821117610cac576040526005015f865b600a82106112335750505060a086019485526040519551865251602086015251604085015251606084015251151560808301525160a082015f905b600a821061121457610be084f35b60206101208261122760019487516122db565b01930191019091611206565b60066020600192611243866125f4565b8152019301910190916111cb565b60209061125c61258a565b8185015201611147565b34610287576020366003190112610287576004356001600160a01b03811690819003610287575f546001600160a01b0316338114158061132b575b611301575080156112f2576020817fd1a6a14209a385a964d036e404cb5cfb71f4000cdb03c9366292430787261be6926bffffffffffffffffffffffff60a01b6002541617600255604051908152a1005b63d92e233d60e01b5f5260045ffd5b60025463061db9c160e01b5f908152336004526024929092526001600160a01b0316604452606490fd5b506002546001600160a01b03163314156112a1565b34610287575f36600319011261028757611358612bf3565b6040516370a0823160e01b81523060048201527f00000000000000000000000000000000000000000000000000000000000000006001600160a01b031690602081602481855afa908115610f62575f9161145f575b505f916044602092604051948593849263a9059cbb60e01b845233600485015260248401525af1908115610f62575f91611424575b50156113ea57005b60405162461bcd60e51b81526020600482015260126024820152712ab730b13632903a37903a3930b739b332b960711b6044820152606490fd5b90506020813d602011611457575b8161143f60209383612401565b810103126102875751801515810361028757816113e2565b3d9150611432565b90506020813d602011611489575b8161147a60209383612401565b8101031261028757515f6113ad565b3d915061146d565b34610287575f366003190112610287575f546040516001600160a01b039091168152602090f35b34610287576020366003190112610287576004355f52600a60205260a060405f20805490600181015490600281015460ff60046003840154930154169260405194855260208501526040840152606083015215156080820152f35b34610287575f366003190112610287576020600354604051908152f35b3461028757602036600319011261028757611549612bf3565b5f80808060043560018060a01b038254165af13d156115d7573d6001600160401b038111610cac5760405190611589601f8201601f191660200183612401565b81525f60203d92013e5b1561159a57005b60405162461bcd60e51b81526020600482015260156024820152741dda5d1a191c985dd3985d1a5d994819985a5b1959605a1b6044820152606490fd5b611593565b34610287575f36600319011261028757602063ffffffff60055460301c16604051908152f35b34610287575f366003190112610287576001546001600160a01b038116330361166f575f80546001600160a01b031980821633908117845593166001556001600160a01b0316907f8be0079c531659141344cd1fd0a4f28419497f9722a3daafe3b4186f6b6457e09080a3005b60405162461bcd60e51b815260206004820152601660248201527526bab9ba10313290383937b837b9b2b21037bbb732b960511b6044820152606490fd5b34610287575f36600319011261028757602060405160148152f35b34610287576020366003190112610287576004355f52600e60205260405f206001815491015490610283604051928260ff80869560081c16911684604091949392606082019515158252151560208201520152565b34610287576020366003190112610287576117366124fc565b61173e612bf3565b600754805f52600a60205260ff600460405f20015416611949575f52600a602052600260405f200154612a3081018091116106995742106119045760206117ff5f9260018060a01b0360025416906004549063ffffffff600354916117ad6005549160405190610d8f826123b0565b92604051946117bb866123cb565b85528785015261ffff81881c166040850152818116606085015260301c16608083015260a0820152604051948580948193634d8e1c2f60e11b83526004830161269f565b03925af18015610f62575f906118d1575b602090600754600160405191611825836123e6565b8183526118738584015f815260408501928352855f52600d875261185c60405f2095511515869060ff801983541691151516179055565b51845461ff00191690151560081b61ff0016178455565b519101556007545f52600a825280600360405f2001556007545f52600882524260405f20556007547f3f627f5e911e5f6d4e28a76a1af48bb55c89492569daa91a48a7330789dd1e5e604080518481525f86820152a2604051908152f35b506020813d6020116118fc575b816118eb60209383612401565b810103126102875760209051611810565b3d91506118de565b60405162461bcd60e51b815260206004820152601a60248201527f526f756e64206475726174696f6e206e6f7420656c61707365640000000000006044820152606490fd5b60405162461bcd60e51b8152602060048201526015602482015274149bdd5b9908185b1c9958591e481cd95d1d1b1959605a1b6044820152606490fd5b34610287575f366003190112610287576020604051612a308152f35b34610287576119b0366122b8565b906119b961250b565b505f52600c60205260405f20905f5260205261028360405f206006604051916119e183612379565b6119ea81612422565b835260018101546020840152600281015460408401526003810154606084015260048101546080840152600581015460a0840152015460c0820152604051918291602083526020830190612233565b34610287575f366003190112610287576020600454604051908152f35b34610287576020366003190112610287576004355f526008602052602060405f2054604051908152f35b34610287575f366003190112610287576040517f00000000000000000000000000000000000000000000000000000000000000006001600160a01b03168152602090f35b34610287575f36600319011261028757611adc612bf3565b600654805f52600960205260ff600360405f2001541615611e6b5760075480158015611e52575b15611e0d57815f5260096020526024600260405f2001541015611dd557611b2990612670565b6007555f526009602052600260405f2001611b448154612670565b9055600754805f52600a60205260405f2090815560065460018201554260028201556004810160ff198154169055600754906102a09160405192611b888185612401565b60148452601f19013660208501375f5b60148110611dc057506013805b611d3a5760058301845f5b600a8110611beb57600754600654907fa359b664a68acd8839e42112eb50eff3408165e15074fde89ddb58a0db2e691d6020604051428152a3005b8060011b908082046002148115171561069957611c08828461267e565b51916001810180911161069957611c1f908461267e565b51611c2d8184600654612c76565b9060405195611c3b87612394565b86526020860193845260408601925f845260608701945f865260808801905f825260a08901985f8a5260c0810193845260e081019485526101008101958652611c84898d6125cd565b989098611d275790518855905160018801559451600287018054965161ff0060089190911b1660ff90921661ffff199097169690961717855551936004851015611d135760019760059562ff000083549160101b169062ff0000191617825551151563ff00000082549160181b169063ff00000019161790555160038501555160048401555191015501611bb0565b634e487b7160e01b5f52602160045260245ffd5b634e487b7160e01b5f525f60045260245ffd5b604051602081019083825282604082015260408152611d5a606082612401565b5190206001820190818311610699578115611dac5706611d7a818661267e565b5190611d91611d89848861267e565b51918761267e565b52611d9c828661267e565b528015610699575f190180611ba5565b634e487b7160e01b5f52601260045260245ffd5b8080611dce6001938761267e565b5201611b98565b60405162461bcd60e51b815260206004820152601060248201526f14d9585cdbdb8818dbdb5c1b195d195960821b6044820152606490fd5b60405162461bcd60e51b815260206004820152601a60248201527f50726576696f757320726f756e64206e6f7420736574746c65640000000000006044820152606490fd5b50805f52600a60205260ff600460405f20015416611b03565b60405162461bcd60e51b815260206004820152601060248201526f27379030b1ba34bb329039b2b0b9b7b760811b6044820152606490fd5b346102875760603660031901126102875760043563ffffffff8116809103610287576024359061ffff8216820361028757611edc612bf3565b65ffff000000006005549260201b169165ffffffffffff191617176005556044356004555f80f35b34610287576020366003190112610287576004355f52600b60205260405f20611f2c81612422565b61028360018301549260028101549060038101546004820154906006600584015493015493604051978897886124c2565b34610287575f36600319011261028757602063ffffffff60055416604051908152f35b34610287576040366003190112610287576024356001600160401b03811161028757366023820112156102875780600401356001600160401b038111610287573660248260051b84010111610287576002546001600160a01b031633819003611ff3575060246100189201600435612814565b63073e64fd60e21b5f523360045260245260445ffd5b34610287576020366003190112610287576004355f52600d60205260405f206001815491015490610283604051928260ff80869560081c16911684604091949392606082019515158252151560208201520152565b346102875761206c366122b8565b905f52600c60205260405f20905f5260205260405f20611f2c81612422565b3461028757612099366122b8565b6120a161258a565b50600a8110156120d8576108396120c991610120935f52600a602052600560405f20016125cd565b6120d660405180926122db565bf35b60405162461bcd60e51b8152602060048201526013602482015272092dcecc2d8d2c840dac2e8c6d040d2dcc8caf606b1b6044820152606490fd5b34610287576020366003190112610287576004355f52600e60205260ff60405f2061028381549161214b600260018301549201612542565b906040519484818796161515865260081c16151560208501526040840152608060608401526080830190612285565b34610287575f36600319011261028757602060405160248152f35b34610287576020366003190112610287576004356121b161250b565b5060148110156121d8575f52600b60205261028360405f206006604051916119e183612379565b60405162461bcd60e51b815260206004820152600f60248201526e125b9d985b1a59081d19585b481251608a1b6044820152606490fd5b805180835260209291819084018484015e5f828201840152601f01601f1916010190565b9060c08061224a845160e0855260e085019061220f565b936020810151602085015260408101516040850152606081015160608501526080810151608085015260a081015160a0850152015191015290565b90602080835192838152019201905f5b8181106122a25750505090565b8251845260209384019390920191600101612295565b6040906003190112610287576004359060243590565b906004821015611d135752565b6101008091805184526020810151602085015260ff604082015116604085015260ff606082015116606085015261231a608082015160808601906122ce565b60a0810151151560a085015260c081015160c085015260e081015160e08501520151910152565b90600182811c9216801561236f575b602083101461235b57565b634e487b7160e01b5f52602260045260245ffd5b91607f1691612350565b60e081019081106001600160401b03821117610cac57604052565b61012081019081106001600160401b03821117610cac57604052565b602081019081106001600160401b03821117610cac57604052565b60c081019081106001600160401b03821117610cac57604052565b606081019081106001600160401b03821117610cac57604052565b90601f801991011681019081106001600160401b03821117610cac57604052565b9060405191825f82549261243584612341565b80845293600181169081156124a0575060011461245c575b5061245a92500383612401565b565b90505f9291925260205f20905f915b81831061248457505090602061245a928201015f61244d565b602091935080600191548385890101520191019091849261246b565b90506020925061245a94915060ff191682840152151560051b8201015f61244d565b9390926124de60c096939998979460e0875260e087019061220f565b98602086015260408501526060840152608083015260a08201520152565b60043590811515820361028757565b6040519061251882612379565b5f60c083606081528260208201528260408201528260608201528260808201528260a08201520152565b90604051918281549182825260208201905f5260205f20925f5b81811061257157505061245a92500383612401565b845483526001948501948794506020909301920161255c565b6040519061259782612394565b5f610100838281528260208201528260408201528260608201528260808201528260a08201528260c08201528260e08201520152565b90600a8110156125e05760060201905f90565b634e487b7160e01b5f52603260045260245ffd5b9060405161260181612394565b80928054825260018101546020830152600281015460ff8116604084015260ff8160081c16606084015260ff8160101c16916004831015611d135760ff60059261010094608087015260181c16151560a0850152600381015460c0850152600481015460e08501520154910152565b5f1981146106995760010190565b80518210156125e05760209160051b010190565b9190820180921161069957565b60e060a06126f99360208452805160208501526020810151604085015261ffff604082015116606085015263ffffffff606082015116608085015263ffffffff6080820151168285015201519160c080820152019061220f565b90565b5f5b82811061270a57505050565b60209061271561258a565b81840152016126fe565b5f5b82811061272d57505050565b5f82820155600101612721565b1561274157565b60405162461bcd60e51b815260206004820152600f60248201526e105b1c9958591e481cd95d1d1b1959608a1b6044820152606490fd5b919460ff809298979560a09561245a9860c087019b87526020870152604086015216606084015216608082015201906122ce565b600f5480156127e357805f52600e60205260405f2090815491600181015491936126f9600260ff8087169660081c16949301612542565b506040516127f2602082612401565b5f81525f3681375f915f915f915f9190565b91908110156125e05760051b0190565b919091805f52600e60205260ff60405f205416612aec57805f52600d60205260405f209182549060ff821615612ab25760ff8260081c16612a7957600184015494855f52600a60205260405f2094610100600487019461287860ff8754161561273a565b61ff0019161790556009198201612a35579385939291945f956001600584019301965b600a81106129215750505050600160ff198254161790557f41c9b09716a74f8a100ce1159febf82ab674e27ff67c16f4fed74d6fc1c628695f80a35480917f84ea2725ed7015ebac8f69258b09c394b1f22b1031d4393a1580b3935058d7dc5f80a3805f5260096020526024600260405f20015410156129185750565b61245a90613117565b839495967f531a27ffbfe8adaf531e3c945d083676ca63bbe97edde0d5db77da2f6df99531896129558460019697986125cd565b506129f761296486898b612804565b3561299961297182612f86565b916040516020810191825289604082015260408152612991606082612401565b519020612f86565b60028401805461ffff191660ff841617600883901b61ff00161781559461064690865463ff0000001916630100000017875560ff84811690841680821115612a07575050865462ff00001916620100001787555b54610640866125f4565b0390a2019087959493929161289b565b1115612a2157865462ff00001916620200001787556129ed565b865462ff00001916620300001787556129ed565b606460405162461bcd60e51b815260206004820152602060248201527f496e636f7272656374206e756d626572206f662072616e646f6d20776f7264736044820152fd5b60405162461bcd60e51b8152602060048201526011602482015270105b1c9958591e48199d5b199a5b1b1959607a1b6044820152606490fd5b60405162461bcd60e51b8152602060048201526012602482015271125b9d985b1a59081c995c5d595cdd08125160721b6044820152606490fd5b91825f52600e60205260405f20805460ff8160081c16612bae5761ff0019166101001781556002015f5b838110612b7257505060405160208082528101839052906001600160fb1b03831161028757816040917f11af5db488e2905a50ad4cbf5dfe2cbeafc4f6a20f2d114e3a178695256f713f9460051b8091848401378101030190a2565b612b7d818585612804565b3590825491600160401b831015610cac57600183018085558310156125e057600192845f5260205f20015501612b16565b60405162461bcd60e51b815260206004820152601e60248201527f54657374207265717565737420616c72656164792066756c66696c6c656400006044820152606490fd5b5f546001600160a01b03163303612c0657565b60405162461bcd60e51b815260206004820152601660248201527527b7363c9031b0b63630b1363290313c9037bbb732b960511b6044820152606490fd5b8115611dac570490565b81810392915f13801582851316918412161761069957565b600160ff1b8114610699575f0390565b90815f52600c60205260405f20905f5260205260405f209060405192612c9b84612379565b612ca483612422565b84526001830154936020810194855260028401549360408201948552600381015492606083019384526004820154946080840195865260058301549260a08501938452600601549360c0019384525f52600c60205260405f20905f5260205260405f209360405195612d1587612379565b612d1e86612422565b8752600186015494602088019586526002870154906040890191825260038801549260608a0193845260048901549a60808b019b8c5260058a01549960a08c019a8b52600601549a60c0019a8b52519051612d7891612692565b9051612d8391612692565b95519051612d9091612692565b9051612d9b91612692565b93801591828015612f56575b612f41575191606483029280840460641490151715610699576003820290828204600314171561069957612e0294612de5612def92612dfc95612c44565b9451905190612c4e565b5f811315612f3357612c44565b90612692565b93519060648202918083046064149015171561069957600381028181046003148215171561069957612e3e94612de5612def92612dfc95612c44565b90606e810290808204606e1490151715610699576064900491612e618284612692565b926032840180941161069957606484029380850460641490151715610699578015612f2857612e91905b84612c44565b918015612f1b57612ea56032915b85612c44565b93049160788110612f13575b6101f48111612f0a575b60788410612f01575b6101f48411612ef7575b60c88310612eee575b6101f48311612ee557929190565b9291506101f490565b60c89250612ed7565b6101f49350612ece565b60789350612ec4565b506101f4612ebb565b506078612eb1565b506032612ea56001612e9f565b50612e916001612e8b565b612f3c90612c66565b612c44565b50505050505050505060b49060dc9061012c90565b508515612da7565b6040519063125fa26760e31b60208301525115156024820152602481526126f9604482612401565b60649006600f8110612fcd5760288110612fc75760418110612fc15760528110612fbb57605d11612fb657600590565b600490565b50600390565b50600290565b50600190565b505f90565b90815f52600c60205260405f2081515f5260205260405f20915f52600c60205260405f2060208201515f52602052608060405f209160ff604082018181511661302060058801918254612692565b905581606084018181511661303a60068a01918254612692565b9055511661304d60058701918254612692565b9055511661306060068501918254612692565b90550180516004811015611d13576001036130ac575090806001600492016130888154612670565b905501908154600381018091116106995760039255016130a88154612670565b9055565b516004811015611d13576002036130ce57806001600492016130888154612670565b90806002600492016130e08154612670565b9055600283016130f08154612670565b90550190815460018101809111610699576004925501805490600182018092116106995755565b5f81815260096020526040812060038101805461ffff191661010017905581805b60148110613175575050817fd84108459ae28f4111f3c851dee576040e08f18d76d1dc82f0094abe275b11529260046020930155604051908152a2565b845f52600c60205260405f20815f5260205281600460405f2001541161319e575b600101613138565b925050825f52600c60205260405f20825f52602052600460405f200154600183905061319656fea2646970667358221220d0293cf6bde1de136094d712d584fedd8d5aed99f48025a60e7ef0223066b41364736f6c63430008210033","linkReferences":{}},"methodIdentifiers":{"MATCHES_PER_ROUND()":"f89f74bf","ROUNDS_PER_SEASON()":"01dae196","ROUND_DURATION()":"6641ea08","TEAMS_COUNT()":"7504bc63","VRF_TIMEOUT()":"f4d1c5f6","acceptOwnership()":"79ba5097","callbackGasLimit()":"24f74697","currentRoundId()":"9cbe5efd","currentSeasonId()":"dc293382","emergencySettleRound(uint256,uint256)":"c559a688","getCurrentRound()":"a32bf597","getCurrentSeason()":"d3b30b75","getLastTestVRFResult()":"faacd6d8","getMatch(uint256,uint256)":"107cfe51","getRequestStatus(uint256)":"d8a4676f","getRound(uint256)":"8f1327c0","getRoundMatches(uint256)":"bf18497f","getSeason(uint256)":"a43d8654","getSeasonStandings(uint256)":"8f15802f","getTeam(uint256)":"008e0f1b","getTeamStanding(uint256,uint256)":"61de5c14","getTestVRFResult(uint256)":"0dd89974","isRoundSettled(uint256)":"98a6ad93","keyHash()":"61728f39","lastTestRequestId()":"b944de28","linkToken()":"57970e93","numWords()":"7ccfd7fc","owner()":"8da5cb5b","rawFulfillRandomWords(uint256,uint256[])":"1fe543e3","requestConfirmations()":"b0fb162f","requestMatchResults(bool)":"6999da13","requestRandomSample(bool,uint32)":"912e8a84","roundVRFRequestTime(uint256)":"5d610e6b","rounds(uint256)":"8c65c81f","s_subscriptionId()":"8ac00021","s_vrfCoordinator()":"9eccacf6","seasonStandings(uint256,uint256)":"13bb301a","seasons(uint256)":"f5d709a1","setCoordinator(address)":"8ea98117","setRoundVRFRequestTime(uint256,uint256)":"ad7fa88b","startRound()":"55e3f086","startSeason()":"952a9633","teams(uint256)":"3ed2b77a","testVRFRequests(uint256)":"699cb811","transferOwnership(address)":"f2fde38b","updateVRFConfig(uint32,uint16,bytes32)":"50f778d7","vrfRequests(uint256)":"1a1d9252","withdrawLink()":"8dc654a2","withdrawNative(uint256)":"84276d81"},"id":39}