{"abi":[{"type":"constructor","inputs":[{"name":"_leagueToken","type":"address","internalType":"address"},{"name":"_initialOwner","type":"address","internalType":"address"}],"stateMutability":"nonpayable"},{"type":"function","name":"MINIMUM_LIQUIDITY","inputs":[],"outputs":[{"name":"","type":"uint256","internalType":"uint256"}],"stateMutability":"view"},{"type":"function","name":"WITHDRAWAL_FEE","inputs":[],"outputs":[{"name":"","type":"uint256","internalType":"uint256"}],"stateMutability":"view"},{"type":"function","name":"addLiquidity","inputs":[{"name":"amount","type":"uint256","internalType":"uint256"}],"outputs":[{"name":"shares","type":"uint256","internalType":"uint256"}],"stateMutability":"nonpayable"},{"type":"function","name":"authorizedCallers","inputs":[{"name":"","type":"address","internalType":"address"}],"outputs":[{"name":"","type":"bool","internalType":"bool"}],"stateMutability":"view"},{"type":"function","name":"borrowedForPoolBalancing","inputs":[],"outputs":[{"name":"","type":"uint256","internalType":"uint256"}],"stateMutability":"view"},{"type":"function","name":"canCoverPayout","inputs":[{"name":"amount","type":"uint256","internalType":"uint256"}],"outputs":[{"name":"","type":"bool","internalType":"bool"}],"stateMutability":"view"},{"type":"function","name":"collectLosingBet","inputs":[{"name":"amount","type":"uint256","internalType":"uint256"}],"outputs":[],"stateMutability":"nonpayable"},{"type":"function","name":"emergencyWithdraw","inputs":[{"name":"amount","type":"uint256","internalType":"uint256"}],"outputs":[],"stateMutability":"nonpayable"},{"type":"function","name":"fundSeeding","inputs":[{"name":"roundId","type":"uint256","internalType":"uint256"},{"name":"amount","type":"uint256","internalType":"uint256"}],"outputs":[{"name":"","type":"bool","internalType":"bool"}],"stateMutability":"nonpayable"},{"type":"function","name":"getAllLPs","inputs":[],"outputs":[{"name":"lpAddresses","type":"address[]","internalType":"address[]"}],"stateMutability":"view"},{"type":"function","name":"getAvailableLiquidity","inputs":[],"outputs":[{"name":"","type":"uint256","internalType":"uint256"}],"stateMutability":"view"},{"type":"function","name":"getLPPosition","inputs":[{"name":"lp","type":"address","internalType":"address"}],"outputs":[{"name":"initialDeposit","type":"uint256","internalType":"uint256"},{"name":"totalWithdrawn","type":"uint256","internalType":"uint256"},{"name":"currentValue","type":"uint256","internalType":"uint256"},{"name":"profitLoss","type":"int256","internalType":"int256"},{"name":"roiBPS","type":"int256","internalType":"int256"},{"name":"depositTimestamp","type":"uint256","internalType":"uint256"}],"stateMutability":"view"},{"type":"function","name":"getLPPositionDetailed","inputs":[{"name":"lp","type":"address","internalType":"address"}],"outputs":[{"name":"initialDeposit","type":"uint256","internalType":"uint256"},{"name":"totalWithdrawn","type":"uint256","internalType":"uint256"},{"name":"currentValue","type":"uint256","internalType":"uint256"},{"name":"realizedValue","type":"uint256","internalType":"uint256"},{"name":"atRiskAmount","type":"uint256","internalType":"uint256"},{"name":"profitLoss","type":"int256","internalType":"int256"},{"name":"roiBPS","type":"int256","internalType":"int256"}],"stateMutability":"view"},{"type":"function","name":"getLPProfitLoss","inputs":[{"name":"lp","type":"address","internalType":"address"}],"outputs":[{"name":"netDeposit","type":"uint256","internalType":"uint256"},{"name":"currentValue","type":"uint256","internalType":"uint256"},{"name":"unrealizedPL","type":"int256","internalType":"int256"},{"name":"realizedPL","type":"int256","internalType":"int256"}],"stateMutability":"view"},{"type":"function","name":"getLPValue","inputs":[{"name":"lp","type":"address","internalType":"address"}],"outputs":[{"name":"shareAmount","type":"uint256","internalType":"uint256"},{"name":"sharePercentage","type":"uint256","internalType":"uint256"}],"stateMutability":"view"},{"type":"function","name":"getMaxWithdrawableAmount","inputs":[{"name":"lp","type":"address","internalType":"address"}],"outputs":[{"name":"maxWithdrawable","type":"uint256","internalType":"uint256"},{"name":"totalValue","type":"uint256","internalType":"uint256"}],"stateMutability":"view"},{"type":"function","name":"getUtilizationRate","inputs":[],"outputs":[{"name":"utilizationBPS","type":"uint256","internalType":"uint256"}],"stateMutability":"view"},{"type":"function","name":"isActiveLP","inputs":[{"name":"lp","type":"address","internalType":"address"}],"outputs":[{"name":"isActive","type":"bool","internalType":"bool"}],"stateMutability":"view"},{"type":"function","name":"leagueToken","inputs":[],"outputs":[{"name":"","type":"address","internalType":"contract IERC20"}],"stateMutability":"view"},{"type":"function","name":"lockLiquidity","inputs":[{"name":"amount","type":"uint256","internalType":"uint256"}],"outputs":[],"stateMutability":"nonpayable"},{"type":"function","name":"lockedLiquidity","inputs":[],"outputs":[{"name":"","type":"uint256","internalType":"uint256"}],"stateMutability":"view"},{"type":"function","name":"lpDepositTimestamp","inputs":[{"name":"","type":"address","internalType":"address"}],"outputs":[{"name":"","type":"uint256","internalType":"uint256"}],"stateMutability":"view"},{"type":"function","name":"lpInitialDeposit","inputs":[{"name":"","type":"address","internalType":"address"}],"outputs":[{"name":"","type":"uint256","internalType":"uint256"}],"stateMutability":"view"},{"type":"function","name":"lpShares","inputs":[{"name":"","type":"address","internalType":"address"}],"outputs":[{"name":"","type":"uint256","internalType":"uint256"}],"stateMutability":"view"},{"type":"function","name":"lpTotalWithdrawn","inputs":[{"name":"","type":"address","internalType":"address"}],"outputs":[{"name":"","type":"uint256","internalType":"uint256"}],"stateMutability":"view"},{"type":"function","name":"owner","inputs":[],"outputs":[{"name":"","type":"address","internalType":"address"}],"stateMutability":"view"},{"type":"function","name":"partialWithdrawal","inputs":[{"name":"shares","type":"uint256","internalType":"uint256"}],"outputs":[{"name":"amount","type":"uint256","internalType":"uint256"},{"name":"sharesBurned","type":"uint256","internalType":"uint256"}],"stateMutability":"nonpayable"},{"type":"function","name":"payWinner","inputs":[{"name":"winner","type":"address","internalType":"address"},{"name":"amount","type":"uint256","internalType":"uint256"}],"outputs":[],"stateMutability":"nonpayable"},{"type":"function","name":"previewDeposit","inputs":[{"name":"amount","type":"uint256","internalType":"uint256"}],"outputs":[{"name":"shares","type":"uint256","internalType":"uint256"}],"stateMutability":"view"},{"type":"function","name":"previewWithdrawal","inputs":[{"name":"shares","type":"uint256","internalType":"uint256"}],"outputs":[{"name":"amount","type":"uint256","internalType":"uint256"}],"stateMutability":"view"},{"type":"function","name":"recoverERC20","inputs":[{"name":"token","type":"address","internalType":"address"},{"name":"amount","type":"uint256","internalType":"uint256"}],"outputs":[],"stateMutability":"nonpayable"},{"type":"function","name":"removeLiquidity","inputs":[{"name":"shares","type":"uint256","internalType":"uint256"}],"outputs":[{"name":"amount","type":"uint256","internalType":"uint256"}],"stateMutability":"nonpayable"},{"type":"function","name":"renounceOwnership","inputs":[],"outputs":[],"stateMutability":"nonpayable"},{"type":"function","name":"returnSeedFunds","inputs":[{"name":"amount","type":"uint256","internalType":"uint256"}],"outputs":[],"stateMutability":"nonpayable"},{"type":"function","name":"setAuthorizedCaller","inputs":[{"name":"caller","type":"address","internalType":"address"},{"name":"authorized","type":"bool","internalType":"bool"}],"outputs":[],"stateMutability":"nonpayable"},{"type":"function","name":"totalLiquidity","inputs":[],"outputs":[{"name":"","type":"uint256","internalType":"uint256"}],"stateMutability":"view"},{"type":"function","name":"totalShares","inputs":[],"outputs":[{"name":"","type":"uint256","internalType":"uint256"}],"stateMutability":"view"},{"type":"function","name":"transferOwnership","inputs":[{"name":"newOwner","type":"address","internalType":"address"}],"outputs":[],"stateMutability":"nonpayable"},{"type":"function","name":"unlockLiquidity","inputs":[{"name":"amount","type":"uint256","internalType":"uint256"}],"outputs":[],"stateMutability":"nonpayable"},{"type":"event","name":"EmergencyWithdraw","inputs":[{"name":"owner","type":"address","indexed":true,"internalType":"address"},{"name":"amount","type":"uint256","indexed":false,"internalType":"uint256"}],"anonymous":false},{"type":"event","name":"LiquidityAdded","inputs":[{"name":"provider","type":"address","indexed":true,"internalType":"address"},{"name":"amount","type":"uint256","indexed":false,"internalType":"uint256"},{"name":"shares","type":"uint256","indexed":false,"internalType":"uint256"}],"anonymous":false},{"type":"event","name":"LiquidityLocked","inputs":[{"name":"amount","type":"uint256","indexed":false,"internalType":"uint256"},{"name":"totalLocked","type":"uint256","indexed":false,"internalType":"uint256"}],"anonymous":false},{"type":"event","name":"LiquidityRemoved","inputs":[{"name":"provider","type":"address","indexed":true,"internalType":"address"},{"name":"shares","type":"uint256","indexed":false,"internalType":"uint256"},{"name":"amount","type":"uint256","indexed":false,"internalType":"uint256"},{"name":"fee","type":"uint256","indexed":false,"internalType":"uint256"}],"anonymous":false},{"type":"event","name":"LiquidityUnlocked","inputs":[{"name":"amount","type":"uint256","indexed":false,"internalType":"uint256"},{"name":"totalLocked","type":"uint256","indexed":false,"internalType":"uint256"}],"anonymous":false},{"type":"event","name":"LosingBetCollected","inputs":[{"name":"amount","type":"uint256","indexed":false,"internalType":"uint256"}],"anonymous":false},{"type":"event","name":"OwnershipTransferred","inputs":[{"name":"previousOwner","type":"address","indexed":true,"internalType":"address"},{"name":"newOwner","type":"address","indexed":true,"internalType":"address"}],"anonymous":false},{"type":"event","name":"PayoutProcessed","inputs":[{"name":"winner","type":"address","indexed":true,"internalType":"address"},{"name":"amount","type":"uint256","indexed":false,"internalType":"uint256"}],"anonymous":false},{"type":"event","name":"SeedingFunded","inputs":[{"name":"roundId","type":"uint256","indexed":false,"internalType":"uint256"},{"name":"amount","type":"uint256","indexed":false,"internalType":"uint256"}],"anonymous":false},{"type":"error","name":"InsufficientLiquidity","inputs":[]},{"type":"error","name":"InsufficientShares","inputs":[]},{"type":"error","name":"MinimumLiquidityRequired","inputs":[]},{"type":"error","name":"OwnableInvalidOwner","inputs":[{"name":"owner","type":"address","internalType":"address"}]},{"type":"error","name":"OwnableUnauthorizedAccount","inputs":[{"name":"account","type":"address","internalType":"address"}]},{"type":"error","name":"ReentrancyGuardReentrantCall","inputs":[]},{"type":"error","name":"SafeERC20FailedOperation","inputs":[{"name":"token","type":"address","internalType":"address"}]},{"type":"error","name":"TransferFailed","inputs":[]},{"type":"error","name":"Unauthorized","inputs":[]},{"type":"error","name":"ZeroAmount","inputs":[]}],"bytecode":{"object":"0x60a03461017657601f611aee38819003918201601f19168301916001600160401b0383118484101761017a57808492604094855283398101031261017657610052602061004b8361018e565b920161018e565b60017f9b779b17422d0df92223018b32b4d1fa46e071723d6817e2486d003becc55f00556001600160a01b0316908115610163575f80546001600160a01b031981168417825560405193916001600160a01b03909116907f8be0079c531659141344cd1fd0a4f28419497f9722a3daafe3b4186f6b6457e09080a36001600160a01b0316908115610131575060805260405161194b90816101a382396080518181816102b7015281816105e80152818161093a01528181610aae01528181610c5601528181610dfc01528181610ef00152818161112d01526114460152f35b62461bcd60e51b815260206004820152600d60248201526c24b73b30b634b2103a37b5b2b760991b6044820152606490fd5b631e4fbdf760e01b5f525f60045260245ffd5b5f80fd5b634e487b7160e01b5f52604160045260245ffd5b51906001600160a01b03821682036101765756fe60806040526004361015610011575f80fd5b5f3560e01c8063061493a314611313578063135f7657146112d357806315770f92146112b65780632bfbd9cf146112385780633a98ef391461121b578063423bcb9f146111ec578063454bbd29146111995780634a417a531461117f5780634e958d05146110955780634fbd01031461105d57806351c6590a14610ec65780635312ea8e14610dcb578063536fff6c14610d8e5780635c0ea0f614610d5657806361b57ada14610d3957806363c6c1e914610d1657806367c9770f14610cdc578063715018a614610c85578063759aa03f14610c4157806378b5f8a014610b915780638980f11f14610a7f5780638da5cb5b14610a585780638e3a889e14610a3a57806396e83924146109b85780639b745aec146109975780639c8f9f231461083b578063a27344b51461080c578063a5d33ed5146107f1578063a84b3aaa146106fb578063b0d65d29146104f3578063b4398244146104d6578063b7b44b461461049e578063ba9a7a5614610482578063c109a6dc1461044a578063c75668ee14610351578063c98bb8aa14610301578063ee3bca1714610275578063ef8b30f71461024f5763f2fde38b146101c6575f80fd5b3461024b57602036600319011261024b576101df611383565b6101e761180e565b6001600160a01b03168015610238575f80546001600160a01b03198116831782556001600160a01b0316907f8be0079c531659141344cd1fd0a4f28419497f9722a3daafe3b4186f6b6457e09080a3005b631e4fbdf760e01b5f525f60045260245ffd5b5f80fd5b3461024b57602036600319011261024b57602061026d600435611766565b604051908152f35b3461024b57602036600319011261024b57600435335f52600960205260ff60405f205416156102f3576020816102db5f5160206118d65f395f51905f529330337f000000000000000000000000000000000000000000000000000000000000000061186c565b6102e7816001546113dc565b600155604051908152a1005b6282b42960e81b5f5260045ffd5b3461024b57602036600319011261024b5760e061032461031f611383565b611647565b94604094919493929351968752602087015260408601526060850152608084015260a083015260c0820152f35b3461024b57602036600319011261024b57608061036c611383565b6001600160a01b03165f8181526004602090815260408083205460059092529091205490818110610443576103a182826113cf565b925b6103b2600154600854906113dc565b60025490918161041f575050505f915b838310610407576103d384846113cf565b915b8082106103fe576103e5916113cf565b915b604051938452602084015260408301526060820152f35b50505f916103e7565b61041961041484866113cf565b611605565b916103d5565b61043d92610438915f52600360205260405f2054611481565b611494565b916103c2565b5f926103a3565b3461024b57602036600319011261024b576001600160a01b0361046b611383565b165f526003602052602060405f2054604051908152f35b3461024b575f36600319011261024b5760206040516103e88152f35b3461024b57602036600319011261024b576001600160a01b036104bf611383565b165f526005602052602060405f2054604051908152f35b3461024b575f36600319011261024b576020600754604051908152f35b3461024b57602036600319011261024b5760043561050f611834565b80156106ec57335f5260036020528060405f2054106106dd57600154600754808211156106d55761054090826113cf565b915b82156106c6576105528282611481565b906105606002548093611494565b9260328402848104603214851517156106b257612710610582910480956113cf565b9285841161066e5750506040935090915b335f526003602052835f206105a98382546113cf565b90556105b7826002546113cf565b6002556105c6836001546113cf565b600155335f526005602052835f206105df8482546113dc565b905561060c83337f000000000000000000000000000000000000000000000000000000000000000061178d565b7f1dc8bb69df2b8e91fbdcbfcf93d951b3f0000f085a95fe3f7946d6161439245d84518061064e33948787846040919493926060820195825260208201520152565b0390a260015f5160206118f65f395f51905f525582519182526020820152f35b85949293916127108702968704612710036106b257610438610696926126de60409904611481565b928084116106a6575b5050610593565b9093509150848061069f565b634e487b7160e01b5f52601160045260245ffd5b63bb55fd2760e01b5f5260045ffd5b505f91610542565b633999656760e01b5f5260045ffd5b631f2a200560e01b5f5260045ffd5b3461024b57602036600319011261024b5760c0610716611383565b6001600160a01b03165f818152600460209081526040808320546005835281842054600690935292205460015460085493949193610753916113dc565b6002549091816107d3575050505f5b61076c82826113dc565b848082106107c05761077d916113cf565b905b846107a8575f925b604051958652602086015260408501526060840152608083015260a0820152f35b6107ba856107b584611615565b61162d565b92610787565b6107cd91610414916113cf565b9061077f565b6107ec92610438915f52600360205260405f2054611481565b610762565b3461024b575f36600319011261024b57602060405160328152f35b3461024b57602036600319011261024b57604061082f61082a611383565b6115af565b82519182526020820152f35b3461024b57602036600319011261024b57600435610857611834565b80156106ec57335f5260036020528060405f2054106106dd576001546108896108808284611481565b60025490611494565b9160328302838104603214841517156106b2576108ae6127106108b8920480956113cf565b92600754906113cf565b82116106c6577f1dc8bb69df2b8e91fbdcbfcf93d951b3f0000f085a95fe3f7946d6161439245d61097b602094335f526003865260405f206108fb8582546113cf565b9055610909846002546113cf565b600255610918856001546113cf565b600155335f526005865260405f206109318682546113dc565b905561095e85337f000000000000000000000000000000000000000000000000000000000000000061178d565b604080519485526020850186905284015233929081906060820190565b0390a260015f5160206118f65f395f51905f5255604051908152f35b3461024b575f36600319011261024b57602061026d600154600754906113cf565b3461024b57602036600319011261024b57600435335f52600960205260ff60405f205416156102f35760407f0102cf15b2b04b36f88bda5389c47ed2ff41ccaa78b974aab6e4480b877bf4c991600754818181115f14610a295750505f6007555b60075482519182526020820152a1005b610a32916113cf565b600755610a19565b3461024b57602036600319011261024b57602061026d60043561156f565b3461024b575f36600319011261024b575f546040516001600160a01b039091168152602090f35b3461024b57604036600319011261024b57610a98611383565b610aa061180e565b6001600160a01b03908116907f0000000000000000000000000000000000000000000000000000000000000000168114610b54575f805460405163a9059cbb60e01b81526001600160a01b039091166004820152602480359082015291602091839160449183915af18015610b4957610b1557005b6020813d602011610b41575b81610b2e60209383611399565b8101031261024b57518015150361024b57005b3d9150610b21565b6040513d5f823e3d90fd5b60405162461bcd60e51b815260206004820152601560248201527443616e6e6f74207265636f766572204c454147554560581b6044820152606490fd5b3461024b57602036600319011261024b57600435335f52600960205260ff60405f205416156102f35780610bc7816001546113dc565b60015560085480610bed575b5f5160206118d65f395f51905f52602084604051908152a1005b808210610c1e5750506020610c135f5160206118d65f395f51905f5292600854906113cf565b5f6008555b91610bd3565b610c2892506113cf565b6008555f5160206118d65f395f51905f5260205f610c18565b3461024b575f36600319011261024b576040517f00000000000000000000000000000000000000000000000000000000000000006001600160a01b03168152602090f35b3461024b575f36600319011261024b57610c9d61180e565b5f80546001600160a01b0319811682556001600160a01b03167f8be0079c531659141344cd1fd0a4f28419497f9722a3daafe3b4186f6b6457e08280a3005b3461024b57602036600319011261024b576001600160a01b03610cfd611383565b165f526003602052602060405f20541515604051908152f35b3461024b57602036600319011261024b57604061082f610d34611383565b6114e5565b3461024b575f36600319011261024b576020600854604051908152f35b3461024b57602036600319011261024b576001600160a01b03610d77611383565b165f526004602052602060405f2054604051908152f35b3461024b57602036600319011261024b576001600160a01b03610daf611383565b165f526009602052602060ff60405f2054166040519015158152f35b3461024b57602036600319011261024b57600435610de761180e565b6040516370a0823160e01b81523060048201527f0000000000000000000000000000000000000000000000000000000000000000906020816024816001600160a01b0386165afa908115610b49575f91610e94575b5082116106c6575f54610e5a9183916001600160a01b03169061178d565b5f546040519182526001600160a01b0316907f5fafa99d0643513820be26656b45130b01e1c03062e1266bf36f88cbd3bd969590602090a2005b90506020813d602011610ebe575b81610eaf60209383611399565b8101031261024b575183610e3c565b3d9150610ea2565b3461024b57602036600319011261024b57600435610ee2611834565b80156106ec57610f148130337f000000000000000000000000000000000000000000000000000000000000000061186c565b60025480610ff457506103e71981018181116106b257600360209081526103e87f3617319a054d772f909f7c479a2cebe5066e836a939412e32403c99029b92eff55335f9081526040902082905560028390556001839055915b335f526004835260405f20610f848282546113dc565b9055335f526006835260405f205415610fe2575b60405190815281838201527fac1d76749e5447b7b16f5ab61447e1bd502f3bb4807af3b28e620d1700a6ee4560403392a260015f5160206118f65f395f51905f5255604051908152f35b335f52600683524260405f2055610f98565b61100161100a9183611481565b60015490611494565b801561104e57602091335f526003835260405f206110298382546113dc565b9055611037826002546113dc565b600255611046816001546113dc565b600155610f6e565b6346a9067160e11b5f5260045ffd5b3461024b57602036600319011261024b576001600160a01b0361107e611383565b165f526006602052602060405f2054604051908152f35b3461024b57604036600319011261024b576110ae611383565b602435335f52600960205260ff60405f205416156102f3576110ce611834565b600154916110de600754846113cf565b82116106c65781611151816020936111207fa413d9a7a769e2fb98933cfe1a5b28db814e29b9cc4ba5aa71ac46d1b6d5e68f9660018060a01b038316986113cf565b60015533871461116b575b7f000000000000000000000000000000000000000000000000000000000000000061178d565b604051908152a260015f5160206118f65f395f51905f5255005b611177826008546113dc565b60085561112b565b3461024b575f36600319011261024b57602061026d6114b2565b3461024b57604036600319011261024b576111b2611383565b6024359081151580920361024b576111c861180e565b60018060a01b03165f52600960205260405f209060ff801983541691161790555f80f35b3461024b57602036600319011261024b57602061120e600154600754906113cf565b6004351115604051908152f35b3461024b575f36600319011261024b576020600254604051908152f35b3461024b57602036600319011261024b57600435335f52600960205260ff60405f205416156102f35760015461127160075480926113cf565b82116106c657816112a57fcb75aa8347c098d414422e8cafbbe4e2c1a229f5b27bf425984b2b9792aa787a936040936113dc565b8060075582519182526020820152a1005b3461024b575f36600319011261024b576020600154604051908152f35b3461024b57604036600319011261024b57335f52600960205260ff60405f205416156102f35760206113096024356004356113e9565b6040519015158152f35b3461024b575f36600319011261024b5760405160206113328183611399565b5f82525f368137604051918183928301818452825180915281604085019301915f5b82811061136357505050500390f35b83516001600160a01b031685528695509381019392810192600101611354565b600435906001600160a01b038216820361024b57565b90601f8019910116810190811067ffffffffffffffff8211176113bb57604052565b634e487b7160e01b5f52604160045260245ffd5b919082039182116106b257565b919082018092116106b257565b600154906113f9600754836113cf565b831161147a578261142d7fb9c395f32a5b435d20719ff227dc603cdf5840d8c3c12a381ea6991378de0d93946040946113cf565b60015561143c816008546113dc565b60085561146a81337f000000000000000000000000000000000000000000000000000000000000000061178d565b82519182526020820152a1600190565b5050505f90565b818102929181159184041417156106b257565b811561149e570490565b634e487b7160e01b5f52601260045260245ffd5b60015480156114e0576007549061271082029180830461271014901517156106b2576114dd91611494565b90565b505f90565b6001600160a01b03165f90815260036020526040902054908115611568576115136108806001548094611481565b9160328302838104603214841517156106b2576127106115349104846113cf565b906007548082115f1461155f5761154a916113cf565b905b8181111561155957509190565b90509190565b50505f9061154c565b5f91508190565b60025480156115a9576104386115889260015490611481565b6032810290808204603214811517156106b2576127106114dd9204906113cf565b50505f90565b906002549182156115fd5760018060a01b03165f52600360205260405f20546115de8361043860015484611481565b9261271082029180830461271014901517156106b2576114dd91611494565b505f91508190565b600160ff1b81146106b2575f0390565b9061271082029180830561271014901517156106b257565b811561149e57600160ff1b81145f198314166106b2570590565b6001600160a01b03165f90815260046020908152604080832054600583528184205460039093529220546002549193909290918015801561175e575b611740576116c790610438600154956116ab836104386116a56008548b6113dc565b84611481565b966007548082115f14611737576116c1916113cf565b90611481565b9182841115611730576116da83856113cf565b915b6116e686866113dc565b8180821061171d576116f7916113cf565b915b8161170a575f915b96959493929190565b611717826107b585611615565b91611701565b61172a91610414916113cf565b916116f9565b5f916116dc565b50505f90611481565b5090915061174d81611605565b9092915f91829182919061270f1990565b508315611683565b600254801561177c57611001906114dd92611481565b506103e71981019081116106b25790565b916040519163a9059cbb60e01b5f5260018060a01b031660045260245260205f60448180865af19060015f51148216156117ed575b604052156117cd5750565b635274afe760e01b5f9081526001600160a01b0391909116600452602490fd5b90600181151661180557823b15153d151616906117c2565b503d5f823e3d90fd5b5f546001600160a01b0316330361182157565b63118cdaa760e01b5f523360045260245ffd5b60025f5160206118f65f395f51905f52541461185d5760025f5160206118f65f395f51905f5255565b633ee5aeb560e01b5f5260045ffd5b6040516323b872dd60e01b5f9081526001600160a01b039384166004529290931660245260449390935260209060648180865af19060015f51148216156118bd575b6040525f606052156117cd5750565b90600181151661180557823b15153d151616906118ae56fe4aad4dd04fb59b5058892992fd6e34b2e41d7c040b4750b455a2ebe0a40442139b779b17422d0df92223018b32b4d1fa46e071723d6817e2486d003becc55f00a2646970667358221220889b74d8279638817aab9fe84901d71adda9458eb8eab4ea6c0632b10bc1e84c64736f6c63430008210033","linkReferences":{}},"methodIdentifiers":{"MINIMUM_LIQUIDITY()":"ba9a7a56","WITHDRAWAL_FEE()":"a5d33ed5","addLiquidity(uint256)":"51c6590a","authorizedCallers(address)":"536fff6c","borrowedForPoolBalancing()":"61b57ada","canCoverPayout(uint256)":"423bcb9f","collectLosingBet(uint256)":"ee3bca17","emergencyWithdraw(uint256)":"5312ea8e","fundSeeding(uint256,uint256)":"135f7657","getAllLPs()":"061493a3","getAvailableLiquidity()":"9b745aec","getLPPosition(address)":"a84b3aaa","getLPPositionDetailed(address)":"c98bb8aa","getLPProfitLoss(address)":"c75668ee","getLPValue(address)":"a27344b5","getMaxWithdrawableAmount(address)":"63c6c1e9","getUtilizationRate()":"4a417a53","isActiveLP(address)":"67c9770f","leagueToken()":"759aa03f","lockLiquidity(uint256)":"2bfbd9cf","lockedLiquidity()":"b4398244","lpDepositTimestamp(address)":"4fbd0103","lpInitialDeposit(address)":"5c0ea0f6","lpShares(address)":"c109a6dc","lpTotalWithdrawn(address)":"b7b44b46","owner()":"8da5cb5b","partialWithdrawal(uint256)":"b0d65d29","payWinner(address,uint256)":"4e958d05","previewDeposit(uint256)":"ef8b30f7","previewWithdrawal(uint256)":"8e3a889e","recoverERC20(address,uint256)":"8980f11f","removeLiquidity(uint256)":"9c8f9f23","renounceOwnership()":"715018a6","returnSeedFunds(uint256)":"78b5f8a0","setAuthorizedCaller(address,bool)":"454bbd29","totalLiquidity()":"15770f92","totalShares()":"3a98ef39","transferOwnership(address)":"f2fde38b","unlockLiquidity(uint256)":"96e83924"},"id":41}