{"abi":[{"type":"constructor","inputs":[{"name":"_leagueToken","type":"address","internalType":"address"},{"name":"_gameEngine","type":"address","internalType":"address"},{"name":"_initialOwner","type":"address","internalType":"address"}],"stateMutability":"nonpayable"},{"type":"function","name":"canClaimPrize","inputs":[{"name":"seasonId","type":"uint256","internalType":"uint256"},{"name":"user","type":"address","internalType":"address"}],"outputs":[{"name":"canClaim","type":"bool","internalType":"bool"},{"name":"amount","type":"uint256","internalType":"uint256"}],"stateMutability":"view"},{"type":"function","name":"claimPrize","inputs":[{"name":"seasonId","type":"uint256","internalType":"uint256"}],"outputs":[],"stateMutability":"nonpayable"},{"type":"function","name":"declareWinner","inputs":[{"name":"seasonId","type":"uint256","internalType":"uint256"}],"outputs":[],"stateMutability":"nonpayable"},{"type":"function","name":"fundPrizePool","inputs":[{"name":"seasonId","type":"uint256","internalType":"uint256"},{"name":"amount","type":"uint256","internalType":"uint256"}],"outputs":[],"stateMutability":"nonpayable"},{"type":"function","name":"gameEngine","inputs":[],"outputs":[{"name":"","type":"address","internalType":"contract IGameEngine"}],"stateMutability":"view"},{"type":"function","name":"getPredictionDistribution","inputs":[{"name":"seasonId","type":"uint256","internalType":"uint256"}],"outputs":[{"name":"counts","type":"uint256[20]","internalType":"uint256[20]"}],"stateMutability":"view"},{"type":"function","name":"getSeasonPrizePool","inputs":[{"name":"seasonId","type":"uint256","internalType":"uint256"}],"outputs":[{"name":"","type":"uint256","internalType":"uint256"}],"stateMutability":"view"},{"type":"function","name":"getSeasonStats","inputs":[{"name":"seasonId","type":"uint256","internalType":"uint256"}],"outputs":[{"name":"prizePool","type":"uint256","internalType":"uint256"},{"name":"totalPredictors","type":"uint256","internalType":"uint256"},{"name":"winnerDeclared","type":"bool","internalType":"bool"},{"name":"winningTeamId","type":"uint256","internalType":"uint256"},{"name":"winnersCount","type":"uint256","internalType":"uint256"}],"stateMutability":"view"},{"type":"function","name":"getTeamPredictorCount","inputs":[{"name":"seasonId","type":"uint256","internalType":"uint256"},{"name":"teamId","type":"uint256","internalType":"uint256"}],"outputs":[{"name":"","type":"uint256","internalType":"uint256"}],"stateMutability":"view"},{"type":"function","name":"getUserPrediction","inputs":[{"name":"seasonId","type":"uint256","internalType":"uint256"},{"name":"user","type":"address","internalType":"address"}],"outputs":[{"name":"","type":"uint256","internalType":"uint256"}],"stateMutability":"view"},{"type":"function","name":"getWinningTeam","inputs":[{"name":"seasonId","type":"uint256","internalType":"uint256"}],"outputs":[{"name":"","type":"uint256","internalType":"uint256"}],"stateMutability":"view"},{"type":"function","name":"hasClaimed","inputs":[{"name":"","type":"uint256","internalType":"uint256"},{"name":"","type":"address","internalType":"address"}],"outputs":[{"name":"","type":"bool","internalType":"bool"}],"stateMutability":"view"},{"type":"function","name":"leagueToken","inputs":[],"outputs":[{"name":"","type":"address","internalType":"contract IERC20"}],"stateMutability":"view"},{"type":"function","name":"makePrediction","inputs":[{"name":"teamId","type":"uint256","internalType":"uint256"}],"outputs":[],"stateMutability":"nonpayable"},{"type":"function","name":"owner","inputs":[],"outputs":[{"name":"","type":"address","internalType":"address"}],"stateMutability":"view"},{"type":"function","name":"renounceOwnership","inputs":[],"outputs":[],"stateMutability":"nonpayable"},{"type":"function","name":"seasonPrizePool","inputs":[{"name":"","type":"uint256","internalType":"uint256"}],"outputs":[{"name":"","type":"uint256","internalType":"uint256"}],"stateMutability":"view"},{"type":"function","name":"seasonWinningTeam","inputs":[{"name":"","type":"uint256","internalType":"uint256"}],"outputs":[{"name":"","type":"uint256","internalType":"uint256"}],"stateMutability":"view"},{"type":"function","name":"teamPredictorCount","inputs":[{"name":"","type":"uint256","internalType":"uint256"},{"name":"","type":"uint256","internalType":"uint256"}],"outputs":[{"name":"","type":"uint256","internalType":"uint256"}],"stateMutability":"view"},{"type":"function","name":"totalPredictions","inputs":[],"outputs":[{"name":"","type":"uint256","internalType":"uint256"}],"stateMutability":"view"},{"type":"function","name":"transferOwnership","inputs":[{"name":"newOwner","type":"address","internalType":"address"}],"outputs":[],"stateMutability":"nonpayable"},{"type":"function","name":"userPredictions","inputs":[{"name":"","type":"uint256","internalType":"uint256"},{"name":"","type":"address","internalType":"address"}],"outputs":[{"name":"","type":"uint256","internalType":"uint256"}],"stateMutability":"view"},{"type":"function","name":"withdrawUnclaimedPrize","inputs":[{"name":"seasonId","type":"uint256","internalType":"uint256"},{"name":"recipient","type":"address","internalType":"address"}],"outputs":[],"stateMutability":"nonpayable"},{"type":"event","name":"OwnershipTransferred","inputs":[{"name":"previousOwner","type":"address","indexed":true,"internalType":"address"},{"name":"newOwner","type":"address","indexed":true,"internalType":"address"}],"anonymous":false},{"type":"event","name":"PredictionMade","inputs":[{"name":"user","type":"address","indexed":true,"internalType":"address"},{"name":"seasonId","type":"uint256","indexed":true,"internalType":"uint256"},{"name":"teamId","type":"uint256","indexed":false,"internalType":"uint256"},{"name":"timestamp","type":"uint256","indexed":false,"internalType":"uint256"}],"anonymous":false},{"type":"event","name":"PrizeClaimed","inputs":[{"name":"user","type":"address","indexed":true,"internalType":"address"},{"name":"seasonId","type":"uint256","indexed":true,"internalType":"uint256"},{"name":"amount","type":"uint256","indexed":false,"internalType":"uint256"}],"anonymous":false},{"type":"event","name":"PrizePoolFunded","inputs":[{"name":"seasonId","type":"uint256","indexed":true,"internalType":"uint256"},{"name":"amount","type":"uint256","indexed":false,"internalType":"uint256"},{"name":"newTotal","type":"uint256","indexed":false,"internalType":"uint256"}],"anonymous":false},{"type":"event","name":"UnclaimedPrizeWithdrawn","inputs":[{"name":"seasonId","type":"uint256","indexed":true,"internalType":"uint256"},{"name":"recipient","type":"address","indexed":true,"internalType":"address"},{"name":"amount","type":"uint256","indexed":false,"internalType":"uint256"}],"anonymous":false},{"type":"event","name":"WinnerDeclared","inputs":[{"name":"seasonId","type":"uint256","indexed":true,"internalType":"uint256"},{"name":"winningTeamId","type":"uint256","indexed":false,"internalType":"uint256"},{"name":"prizePool","type":"uint256","indexed":false,"internalType":"uint256"},{"name":"winnersCount","type":"uint256","indexed":false,"internalType":"uint256"}],"anonymous":false},{"type":"error","name":"AlreadyClaimed","inputs":[]},{"type":"error","name":"AlreadyPredicted","inputs":[]},{"type":"error","name":"IncorrectPrediction","inputs":[]},{"type":"error","name":"InvalidSeason","inputs":[]},{"type":"error","name":"InvalidTeamId","inputs":[]},{"type":"error","name":"NoPrizeAvailable","inputs":[]},{"type":"error","name":"OwnableInvalidOwner","inputs":[{"name":"owner","type":"address","internalType":"address"}]},{"type":"error","name":"OwnableUnauthorizedAccount","inputs":[{"name":"account","type":"address","internalType":"address"}]},{"type":"error","name":"PredictionsLocked","inputs":[]},{"type":"error","name":"SeasonNotActive","inputs":[]},{"type":"error","name":"SeasonNotCompleted","inputs":[]},{"type":"error","name":"TransferFailed","inputs":[]},{"type":"error","name":"WinnerNotDeclared","inputs":[]}],"bytecode":{"object":"0x60c03461019f57601f61128838819003918201601f19168301916001600160401b038311848410176101a35780849260609460405283398101031261019f57610047816101b7565b90610054602082016101b7565b906001600160a01b039061006a906040016101b7565b1691821561018c575f80546001600160a01b031981168517825560405194916001600160a01b03909116907f8be0079c531659141344cd1fd0a4f28419497f9722a3daafe3b4186f6b6457e09080a36001600160a01b031691821561015a57506001600160a01b03169081156101245760805260a0526040516110bc90816101cc82396080518181816103eb015281816105b4015281816107b50152610945015260a0518181816102b901528181610a3f0152610ce50152f35b60405162461bcd60e51b815260206004820152600e60248201526d496e76616c696420656e67696e6560901b6044820152606490fd5b62461bcd60e51b815260206004820152600d60248201526c24b73b30b634b2103a37b5b2b760991b6044820152606490fd5b631e4fbdf760e01b5f525f60045260245ffd5b5f80fd5b634e487b7160e01b5f52604160045260245ffd5b51906001600160a01b038216820361019f5756fe60806040526004361015610011575f80fd5b5f3560e01c8062c2943c14610cad5780632899f02e14610c795780632af711dc14610c205780632b72f11314610c4f5780633f8154bc14610c205780634d9615e014610a125780634d96a63d1461090e57806365ad75f8146108f05780636ac28cb3146108c2578063711d6b2e1461083b578063715018a6146107e4578063759aa03f146107a0578063779bd56214610783578063873f6f9e1461073a5780638da5cb5b1461071357806398a57b1f146106cf578063d35ba5e3146104ef578063d7098154146102e8578063e5336276146102a4578063f2fde38b1461021b578063f43c24e4146101f1578063fe54009d146101f15763ff3adbe814610115575f80fd5b346101ed5760203660031901126101ed576004355f815f52600360205260405f2054905f5b601481106101c25750825f52600460205260405f205492831515805f146101b3575f19850194851161019f578460a095925f52600260205260405f20905f5260205260405f2054925b6040519485526020850152604084015260608301526080820152f35b634e487b7160e01b5f52601160045260245ffd5b60a094505f925f199250610183565b906101e6600191855f52600260205260405f20845f5260205260405f205490610f05565b910161013a565b5f80fd5b346101ed5760203660031901126101ed576004355f526003602052602060405f2054604051908152f35b346101ed5760203660031901126101ed576004356001600160a01b038116908190036101ed57610249611060565b8015610291575f80546001600160a01b03198116831782556001600160a01b0316907f8be0079c531659141344cd1fd0a4f28419497f9722a3daafe3b4186f6b6457e09080a3005b631e4fbdf760e01b5f525f60045260245ffd5b346101ed575f3660031901126101ed576040517f00000000000000000000000000000000000000000000000000000000000000006001600160a01b03168152602090f35b346101ed5760203660031901126101ed57600435805f52600460205260405f205480156104e0575f82815260056020908152604080832033845290915290205460ff166104d1575f82815260016020908152604080832033845290915290205480156104c25781036104c257815f52600360205260405f2054905f19810190811161019f57825f52600260205260405f20905f5260205260405f2054801580156104ba575b6104ab5761039a91610f12565b80156104ab575f8281526005602090815260408083203380855290835292819020805460ff191660011790555163a9059cbb60e01b815260048101929092526024820183905281806044810103815f7f00000000000000000000000000000000000000000000000000000000000000006001600160a01b03165af19081156104a0575f91610466575b5015610457576040519081527f256642a903d86ec186d0ad895b74bdbe7f9e5a72db568f4c4d58c2fa38b39e1c60203392a3005b6312171d8360e31b5f5260045ffd5b90506020813d602011610498575b8161048160209383610e51565b810103126101ed5761049290610e87565b83610423565b3d9150610474565b6040513d5f823e3d90fd5b637491669160e01b5f5260045ffd5b50811561038d565b631ff5cfa960e11b5f5260045ffd5b630c8d9eab60e31b5f5260045ffd5b631c8ddb7960e01b5f5260045ffd5b346101ed5760403660031901126101ed5760043561050b610e25565b90610514611060565b6001600160a01b03821691821561069657815f52600460205260405f20549081156104e057825f52600360205260405f20549182156104ab575f19810190811161019f57835f52600260205260405f20905f5260205260405f2054610651575f8381526003602090815260408083208390555163a9059cbb60e01b81526001600160a01b03938416600482015260248101859052929091839160449183917f0000000000000000000000000000000000000000000000000000000000000000165af19081156104a0575f91610617575b50156104575760207f04e37ef9f44ad434b6492bd47b78e9283af78e2d6fe56e6e369df233596f90b091604051908152a3005b90506020813d602011610649575b8161063260209383610e51565b810103126101ed5761064390610e87565b846105e4565b3d9150610625565b60405162461bcd60e51b815260206004820152601d60248201527f4861732077696e6e657273202d2063616e6e6f742077697468647261770000006044820152606490fd5b60405162461bcd60e51b8152602060048201526011602482015270125b9d985b1a59081c9958da5c1a595b9d607a1b6044820152606490fd5b346101ed5760403660031901126101ed576106e8610e25565b6004355f52600160205260405f209060018060a01b03165f52602052602060405f2054604051908152f35b346101ed575f3660031901126101ed575f546040516001600160a01b039091168152602090f35b346101ed5760403660031901126101ed57610753610e25565b6004355f52600560205260405f209060018060a01b03165f52602052602060ff60405f2054166040519015158152f35b346101ed575f3660031901126101ed576020600654604051908152f35b346101ed575f3660031901126101ed576040517f00000000000000000000000000000000000000000000000000000000000000006001600160a01b03168152602090f35b346101ed575f3660031901126101ed576107fc611060565b5f80546001600160a01b0319811682556001600160a01b03167f8be0079c531659141344cd1fd0a4f28419497f9722a3daafe3b4186f6b6457e08280a3005b346101ed5760203660031901126101ed57600435610280906040516108608382610e51565b823682375f5b601481101561089657600190835f52600260205260405f20815f5260205260405f20548160051b84015201610866565b6040518490835f825b601482106108ac57505050f35b602080600192855181520193019101909161089f565b346101ed5760403660031901126101ed5760206108e86108e0610e25565b60043561102e565b604051908152f35b346101ed5760203660031901126101ed5760206108e8600435611008565b346101ed5761091c36610e3b565b6040516323b872dd60e01b8152336004820152306024820152604481018290526020816064815f7f00000000000000000000000000000000000000000000000000000000000000006001600160a01b03165af19081156104a0575f916109d8575b50156104575760407fbae54143ea19153c39323181b0d90bf49772297d0b3c47dce599ae222137e4e591835f526003602052815f206109bd828254610f05565b9055835f526003602052815f205482519182526020820152a2005b90506020813d602011610a0a575b816109f360209383610e51565b810103126101ed57610a0490610e87565b8361097d565b3d91506109e6565b346101ed5760203660031901126101ed576004356014811015610c115760405163d3b30b7560e01b8152907f00000000000000000000000000000000000000000000000000000000000000006001600160a01b0316602083600481845afa9283156104a0575f93610bdd575b508215610bce5760c06024916040519283809263290f619560e21b82528760048301525afa9081156104a0575f91610b9f575b50606081015115610b90576040600391015111610b81575f828152600160209081526040808320338452909152902054610b72576001810180821161019f57825f52600160205260405f2060018060a01b0333165f5260205260405f2055815f52600260205260405f20815f5260205260405f20610b2f8154610ffa565b9055610b3c600654610ffa565b6006556040519081524260208201527e19aa7779375a2ccaed9a59049cf632bf3db672db71096fcdc73a16d751df9a60403392a3005b633b9e91cf60e01b5f5260045ffd5b630698bbf360e31b5f5260045ffd5b631061211f60e21b5f5260045ffd5b610bc1915060c03d60c011610bc7575b610bb98183610e51565b810190610e94565b83610ab1565b503d610baf565b63d40820c360e01b5f5260045ffd5b9092506020813d602011610c09575b81610bf960209383610e51565b810103126101ed57519183610a7e565b3d9150610bec565b632a982bb360e01b5f5260045ffd5b346101ed57610c2e36610e3b565b905f52600260205260405f20905f52602052602060405f2054604051908152f35b346101ed5760203660031901126101ed576004355f526004602052602060405f2054604051908152f35b346101ed5760403660031901126101ed576040610c9f610c97610e25565b600435610f30565b825191151582526020820152f35b346101ed5760203660031901126101ed57600435610cc9611060565b60405163290f619560e21b81526004810182905260c0816024817f00000000000000000000000000000000000000000000000000000000000000006001600160a01b03165afa9081156104a0575f91610e06575b50608081015115610df757815f52600460205260405f2054610db25760a001516001810180821161019f577fec42d178fb87e5083635c744939667b7b3a94cf1feafcc93e2792de055a27fa091606091845f52600460205260405f2055835f52600360205260405f2054845f52600260205260405f20825f5260205260405f20549060405192835260208301526040820152a2005b60405162461bcd60e51b815260206004820152601760248201527f57696e6e657220616c7265616479206465636c617265640000000000000000006044820152606490fd5b630795452f60e41b5f5260045ffd5b610e1f915060c03d60c011610bc757610bb98183610e51565b82610d1d565b602435906001600160a01b03821682036101ed57565b60409060031901126101ed576004359060243590565b90601f8019910116810190811067ffffffffffffffff821117610e7357604052565b634e487b7160e01b5f52604160045260245ffd5b519081151582036101ed57565b908160c09103126101ed576040519060c082019082821067ffffffffffffffff831117610e735760a091604052805183526020810151602084015260408101516040840152610ee560608201610e87565b6060840152610ef660808201610e87565b6080840152015160a082015290565b9190820180921161019f57565b8115610f1c570490565b634e487b7160e01b5f52601260045260245ffd5b90815f52600460205260405f2054908115610ff157825f52600560205260405f2060018060a01b0382165f5260205260ff60405f205416610ff157825f52600160205260405f209060018060a01b03165f5260205260405f20548015610ff1578103610fe157815f52600360205260405f2054915f19820191821161019f575f52600260205260405f20905f5260205260405f205480158015610fe9575b610fe157610fdb91610f12565b80151591565b50505f905f90565b508115610fce565b5050505f905f90565b5f19811461019f5760010190565b5f52600460205260405f20548015611028575f19810190811161019f5790565b505f1990565b5f52600160205260405f209060018060a01b03165f5260205260405f20548015611028575f19810190811161019f5790565b5f546001600160a01b0316330361107357565b63118cdaa760e01b5f523360045260245ffdfea26469706673582212203c5d61fae4092f31bc310630074c4fc24fc2b8156d88234dd024f2907e21a93064736f6c63430008210033","linkReferences":{}},"methodIdentifiers":{"canClaimPrize(uint256,address)":"2899f02e","claimPrize(uint256)":"d7098154","declareWinner(uint256)":"00c2943c","fundPrizePool(uint256,uint256)":"4d96a63d","gameEngine()":"e5336276","getPredictionDistribution(uint256)":"711d6b2e","getSeasonPrizePool(uint256)":"f43c24e4","getSeasonStats(uint256)":"ff3adbe8","getTeamPredictorCount(uint256,uint256)":"3f8154bc","getUserPrediction(uint256,address)":"6ac28cb3","getWinningTeam(uint256)":"65ad75f8","hasClaimed(uint256,address)":"873f6f9e","leagueToken()":"759aa03f","makePrediction(uint256)":"4d9615e0","owner()":"8da5cb5b","renounceOwnership()":"715018a6","seasonPrizePool(uint256)":"fe54009d","seasonWinningTeam(uint256)":"2b72f113","teamPredictorCount(uint256,uint256)":"2af711dc","totalPredictions()":"779bd562","transferOwnership(address)":"f2fde38b","userPredictions(uint256,address)":"98a57b1f","withdrawUnclaimedPrize(uint256,address)":"d35ba5e3"},"id":42}